:020000040800F2
:10000000389400205F0100082D1A0008630F0008D3
:100010000D18000879060008593E0008000000008D
:100020000000000000000000000000000D39000882
:100030001908000800000000D7010008753A000800
:100040007F0100087F0100087F0100087F01000890
:100050007F0100087F010008310800089D080008A2
:100060007F0100087F0100087F0100087F01000870
:100070007F0100087F0100087F0100087F01000860
:100080007F0100087F0100087F0100087F01000850
:100090007F0100087F0100087F0100087F01000840
:1000A0007F0100087F0100087F0100087F01000830
:1000B0007F010008493B00087F0100087F0100081C
:1000C0007F0100087F0100087F0100087F01000810
:1000D0007F010008F93C00087F0100087F0100084B
:1000E0007F0100087F0100087F0100087F010008F0
:1000F0007F0100087F0100087F0100087F010008E0
:100100007F0100087F0100087F0100087F010008CF
:100110007F0100087F0100087F0100087F010008BF
:100120007F0100087F0100087F0100087F010008AF
:10013000DFF80CD000F0E8F80048004755570008F9
:10014000389400204FF0010080F3138801480249E1
:100150000160FEE70CED00E00400FA057047084876
:100160008047084981F3088807480047FEE7FEE713
:10017000FEE7FEE7FEE7FEE7FEE7FEE7FEE7FEE757
:100180005D0100083894002031010008EFF3108071
:1001900072B6704780F31088704726484FF0FF0111
:1001A0000170002080F309881F4801210170224856
:1001B0004FF08051016062B6FEE703B41E484FF075
:1001C0008051016003BC704703B41B484FF080515D
:1001D000016003BC7047EFF3098028B1203880E844
:1001E000F00F12490968086000B50A4880475DF8B9
:1001F00004EB0B480B490A7802700C480C490A685A
:100200000260106890E8F00F203080F309884EF00B
:10021000040E7047B7240008791B0008510800201D
:1002200053080020540800205A08002060080020CD
:100230006808002022ED00E004ED00E010B540EA7F
:1002400001040346A40703D009E010C9121F10C31C
:10025000042AFAD203E011F8014B03F8014B521EB5
:10026000F9D210BDD2B201E000F8012B491EFBD239
:1002700070470022F6E710B50446084611460246CC
:100280002046FFF7EFFF204610BD30B504460020A2
:10029000034600E05B1C934203D2E05CCD5C401B54
:1002A000F8D030BD2DE9F05F0546002092469B4610
:1002B00088460646814640241BE02846414647467C
:1002C000224600F042F852465B46801A994110D30C
:1002D00010461946224600F029F82D1A67EB01084E
:1002E0004F4622460120002100F020F817EB0009BC
:1002F0004E41201EA4F10104DFDC484631462A4667
:100300004346BDE8F09F0000064C074D06E0E0685C
:1003100040F0010394E8070098471034AC42F6D34C
:10032000FFF70AFF987A0008B87A0008202A04DB51
:10033000203A00FA02F1002070479140C2F12003F8
:1003400020FA03F3194390407047202A04DB203A37
:1003500021FA02F00021704721FA02F3D040C2F1E5
:100360002002914008431946704770B501EB020422
:1003700010F8015B15F0070301D110F8013B2A11B9
:1003800006D110F8012B03E010F8016B01F8016BA6
:100390005B1EF9D12B0705D40023521E0FD401F8A0
:1003A000013BFAE710F8013B02F10202A1EB030363
:1003B00003E013F8015B01F8015B521EF9D5A1427D
:1003C000D6D3002070BD00002DE9F04705460E464B
:1003D000174698464FF00209FFF7D8FE82466C6830
:1003E000DCB12068686026736773C4F8048007F086
:1003F000D7F8A06000202060E86810B9EC60AC601D
:1004000002E0E8680460EC602868102802D22868DE
:10041000401C28604FF0000912E0AC686CB1206805
:10042000A86026736773C4F8048007F0B9F8A06069
:1004300000202060E8680460EC6004A004F028FD5F
:100440005046FFF7A7FE4846BDE8F0875472616E3C
:1004500073616374696F6E2046756C6C0A000000EE
:1004600003F01CFB00F00AF900F06CF905F0F2F85B
:10047000002003F0D1F9012003F0CEF9022003F0AF
:10048000CBF9032003F0C8F9002003F0FDF90120A7
:1004900003F0FAF9022003F0F7F9032003F0F4F96E
:1004A000642002F009F8002003F0DAF9012003F0DB
:1004B000D7F9022003F0D4F9032003F0D1F901F0B9
:1004C00025FE114C11A004F0E3FC13A004F0E0FCA5
:1004D000002505E014F8011B11A004F0D9FC6D1CE7
:1004E0000B2DF7DB217810A004F0D2FC04F072FC95
:1004F0000FA004F0CDFC05E0002003F0F5F9142076
:1005000001F0DAFFF8E70000E8F7FF1F2A2A2A2A9D
:100510002A2A2A2A2A2A0A0043505549443A0A001C
:10052000253032582D000000253032580A000000D6
:10053000574552535F696E6974204F4B0A000000A3
:100540001FB50121080202F041FE4FF44040ADF812
:100550000C0010208DF80F0003208DF80E0003A969
:10056000224800F075FC224802F022FF01210520FC
:1005700002F02CFE1120ADF80C0004208DF80F00C5
:1005800003A91C4800F064FC0021084600F040FC70
:100590000120019000208DF808000C208DF8090042
:1005A00001208DF80A0001A800F0C4F906208DF89A
:1005B00000000F208DF801008DF8020001208DF859
:1005C0000300684601F034FA06200F21002807DAFC
:1005D0000A07140E084A00F00F031B1FD45403E04F
:1005E0000A07130E054A135400BF1FBD0020014027
:1005F000891000080008014018ED00E000E400E068
:1006000010B5FFF7C3FD044606F0CAFF09490968A3
:10061000884207D90020074908602046FFF7BAFD45
:10062000012010BD2046FFF7B5FD032005F07EF840
:100630000020F6E7F407002070B5044606F0B0FF8E
:100640000546FFF7A3FD06460A480068854201D823
:10065000A54207D90020074908603046FFF79AFDF8
:10066000012070BD3046FFF795FD032005F05EF8D0
:100670000020F6E7F407002000BFFEE708B50121DF
:100680004FF4DA7002F0A2FD4FF48070ADF8000074
:1006900004208DF8030003208DF80200694602480B
:1006A00000F0D6FB08BD00000020014010B5044654
:1006B0000C48006828B906F073FF20440949086017
:1006C0000DE006F06DFF07490968884204D9002053
:1006D00004490860012010BD052005F027F800201E
:1006E000F9E70000A007002030B504460B460021C2
:1006F00021E0134800EB01100078D8B9104800EB56
:10070000011043600E4800EB011083600C4800EBC1
:100710000110C4600A4D05EB01156A800020084DE8
:1007200005EB011568700120054D05EB01152870DA
:10073000084630BD491C0429DBD34FF0FF30F8E7F1
:10074000380A002030B589B0002409E000202E4985
:1007500001EB041108702C4901EB0411C860641C02
:10076000042CF3D30121022002F020FD1D208DF87E
:10077000040007208DF805008DF8060001208DF893
:10078000070001A801F054F91D200721002807DA0D
:100790000A07150E1D4A00F00F031B1FD55403E076
:1007A0000A07130E1A4A135400BF4FF6FF70ADF834
:1007B0001C004820ADF818000020ADF81E00ADF870
:1007C0001A008DF8200006A9124803F077FA0020DD
:1007D000ADF808000120ADF80A004FF47A70ADF8CA
:1007E0000E000020ADF8100002A90A4803F02AFA12
:1007F0000121084803F00EFA01220221054803F006
:1008000015FA09B030BD0000380A002018ED00E0EC
:1008100000E400E00004004070470000042804DA0F
:100820000021024A02EB001211707047380A0020C2
:1008300010B5FFF7ABFC044615480078401C14497E
:1008400008702046FFF7A6FC062001218140114ACE
:10085000430942F8231000BF012000F057F840B1CF
:100860000D48006810B10C4800688047012000F076
:1008700047F806200121814042094FF0E02303EBB5
:100880008202C2F8001100BF01F076F910BD00002D
:100890005108002080E100E08000002010B5FFF743
:1008A00075FC044613480078401C12490870204625
:1008B000FFF770FC0720012181400F4A430942F8ED
:1008C000231000BF02E002200C4908600B480068BA
:1008D00010F0020FF7D107200121814042094FF0AB
:1008E000E02303EB8202C2F8001100BF01F044F9DB
:1008F00010BD00005108002080E100E01404014018
:1009000001490860704700001404014001460020BE
:100910000022074B1B6803EA0102054B14331B68D6
:100920000B4202D00AB1012000E000207047000015
:1009300000040140002123498279002A3AD00A4666
:10094000126803689A430B461A600A1D126803680E
:100950009A430B1D1A60027911440A6803681A430E
:100960000A60184A0832126803689A43154B083324
:100970001A601A1D126803689A43124B0C331A60EE
:100980004279102A0ED11A1F126803681A430D4BC0
:1009900008331A601A1D126803681A43094B0C3396
:1009A0001A600DE00749427911440A6803681A4346
:1009B0000A6005E0027911440A6803689A430A60F4
:1009C000704700000004014004200C49C96801F090
:1009D0000101012901D101200EE00849C96811F087
:1009E000040F01D0022007E00449C96811F0100F7C
:1009F00001D0032000E004207047000000200240E6
:100A000070B504460425FFF7DFFF054605E004F056
:100A100001FDFFF7D9FF0546641E012D01D1002C11
:100A2000F5D104B90525284670BD000070B504460F
:100A30000420FFF7E5FF05466FF30A04042D1BD1E0
:100A40000F48006940F002000D4908610846446102
:100A5000006940F04000086140F6FF70FFF7D0FFEA
:100A60000546052D08D00648006941F6FD7108408D
:100A700003490861002070BD4FF0FF30FBE7000024
:100A80000020024070B505460C4616460348211862
:100A900032462846FFF7D2FB70BD00000000040874
:100AA0002DE9F74F82B082469146039FB048B14985
:100AB0004860B14848603520C860CAF30A00C0F5F4
:100AC000006BAE4850440190AC4850446FF30A00AC
:100AD0000090D94503D84E464FF0000902E05E462B
:100AE000A9EB060932463946019804F047FD002873
:100AF00021D0002505E00198405DFF2800D002E0EC
:100B00006D1CB542F7D300BFB54215D24FF4006259
:100B10009B480099FFF792FBCAF30A01984A88188C
:100B200032460399FFF78AFB0098FFF77FFF009892
:100B300000F028F9374473E08E48006940F0010066
:100B40008C4908618D48504420F001041AF0010FCF
:100B500019D04FF0000809E0404608F101080528C7
:100B600004D94FF0FF3005B0BDE8F08F0F20FFF73C
:100B700047FF0428F0D13988208861F31F202080A6
:100B8000A41C761E7F1C4FEA560B002514E04FF084
:100B9000000807E0404608F10108052802D94FF097
:100BA000FF30E0E70F20FFF72BFF0428F2D1388851
:100BB00020806D1CA41CBF1C5D45E8D316F0010FFE
:100BC00017D04FF0000807E0404608F1010805285B
:100BD00002D94FF0FF30C6E70F20FFF711FF0428BE
:100BE000F2D1208800F47F403988C9B208432080C0
:100BF0007F1C4FF0000807E0404608F10108052877
:100C000002D94FF0FF30AEE70F20FFF7F9FE0428BE
:100C1000F2D15848006941F6FE7108405549086113
:100C20009AE0B9F5006F04D34FF40066A9F50069A6
:100C300002E04E464FF00009009800F50060009079
:100C4000009C32463946204604F098FC00287DD0AE
:100C50004FEA5608002507E034F81500A0F57F415B
:100C6000FF3900D002E06D1C4545F5D300BF454576
:100C700007D116F0010F04D034F81500002000B1A0
:100C80000025EDB33B48006940F001003949086197
:100C9000C346002514E04FF0000807E0404608F185
:100CA0000108052802D94FF0FF305CE70F20FFF75D
:100CB000A7FE0428F2D1388820806D1CA41CBF1C1C
:100CC0005D45E8D316F0010F17D04FF0000807E09C
:100CD000404608F10108052802D94FF0FF3042E7ED
:100CE0000F20FFF78DFE0428F2D1208800F47F400A
:100CF0003988C9B2084320807F1C4FF0000808E003
:100D000014E0404608F10108052802D94FF0FF30F1
:100D100029E70F20FFF774FE0428F2D11548006977
:100D200041F6FE7108401349086115E04FF4006276
:100D300013480099FFF782FA324639461048FFF708
:100D40007DFA0098FFF772FE009800E003E000F0E3
:100D500019F8374400E03744B9F1000F7FF461AF70
:100D60000448006940F08000024908610020FAE66A
:100D70002301674500200240AB89EFCD0000040845
:100D8000780A00202DE9F04104461F4D1F480069F4
:100D900040F001001D4908616FF30A042646002750
:100DA00015E04FF0000808E0404608F1010805286A
:100DB00003D94FF0FF30BDE8F0810F20FFF720FE90
:100DC0000428F1D1288830807F1CB61CAD1CB7F5F3
:100DD000806FE6D34FF0000807E0404608F10108B5
:100DE000052802D94FF0FF30E5E70F20FFF708FE96
:100DF0000428F2D10548006941F6FE710840034914
:100E000008610020D7E70000780A00200020024097
:100E100030B500228B071C0F0F2303FA04F20B4B93
:100E20008C1053F824309343084C8D1044F825302F
:100E300023468C1053F824308C07240F00FA04F456
:100E40002343024C8D1044F8253030BD080001408A
:100E50002DE9F04102460025002600200023002451
:100E6000002791F803C00CF00F0591F803C01CF0A7
:100E7000100F03D091F802C04CEA0505B1F800C08C
:100E80001CF0FF0F31D0146800202BE04FF0010C54
:100E90000CFA00F3B1F800C00CEA03069E4220D120
:100EA00083004FF00F0C0CFA03F7BC4305FA03FC68
:100EB0004CEA040491F803C0BCF1280F06D14FF0AE
:100EC000010C0CFA00FCC2F814C00AE091F803C04F
:100ED000BCF1480F05D14FF0010C0CFA00FCC2F830
:100EE00010C0401C0828D1D31460B1F800C0BCF178
:100EF000FF0F34DD546800202EE000F1080C4FF0A5
:100F0000010808FA0CF3B1F800C00CEA03069E428F
:100F100021D183004FF00F0C0CFA03F7BC4305FA04
:100F200003FC4CEA040491F803C0BCF1280F05D17E
:100F300000F1080C08FA0CF8C2F8148091F803C00C
:100F4000BCF1480F07D100F1080C4FF0010808FA76
:100F50000CF8C2F81080401C0828CED35460BDE8BD
:100F6000F08100BFFEE700004CF6CC40014908606C
:100F700070470000003000404AF6AA20014908608E
:100F80007047000000300040014948607047000091
:100F90000030004001498860704700000030004088
:100FA00001490860704700000030004006480068B2
:100FB000062801D3022002E003480068801F02498E
:100FC0000860084600687047A407002008480068C9
:100FD000410007480068A1EB5001642901D9642051
:100FE00000E00846024A10601046006870470000A2
:100FF000A407002008B5014659B108880090BDF843
:101000000000054A1288904201D0002008BD01204E
:10101000FCE70020FAE70000E407002010B50446D2
:10102000204604F083FB10BD10B500BF09480078CE
:1010300009490978884207D100BFE422074908A07E
:1010400003F026FF00BFFEE700BF01200A49087039
:1010500010BD00007A0000200E77000877770008A6
:10106000415353455254206572726F7221212D2DC8
:1010700025733A25640A00007900002001480078B1
:10108000704700007800002010B500200849086073
:101090000848006810F0010F05D000F021FC012085
:1010A0000449143108600221032002F0F9FB10BD4D
:1010B000640000200004014070B5FFF767F80546A2
:1010C00000207F49086040217E48FFF7D2F804F0F5
:1010D0009BFB00BF7C48006810F0010F08D100BFE7
:1010E0004FF4C37279497AA003F0D2FE00BFFEE745
:1010F00000BF012074490C3108600A2000F0A0FBF9
:101100000120714908310860282000F099FB012076
:101110006D490C31086000BF7348006810F0400F43
:10112000FAD1302002F010FB00BF6F48006810F0C9
:10113000400FFAD10120644908310860312004F0E1
:101140006DFB0446214669A003F0A2FE062004F0D0
:1011500065FB044621466AA003F09AFEA5210620FD
:1011600004F06DFB062004F059FB0446214669A0FB
:1011700003F08EFE00BF062004F050FBA52808D027
:1011800000BF4FF4D572514951A003F081FE00BF5A
:10119000FEE700BF00BF302004F040FB40B100BFBD
:1011A00040F2AD1249494AA003F072FE00BFFEE7CB
:1011B00000BF00BF312004F031FB032808DA00BF74
:1011C0004FF4D772414942A003F062FE00BFFEE730
:1011D00000BF00240AE0544A02EB44025178524A0C
:1011E00012F8140004F02BFB601CC4B21F2CF2D3C5
:1011F00002204E490870002000F09EF9342004F0CF
:10120000DDFA4FF47A7400BF382004F007FB10F0C9
:10121000500F00D007E0402000F012FBA4F1400086
:1012200004B2002CF0DC00BF00240AE0404806783D
:10123000342004F0F3FA66F35F003D490870601C47
:10124000C4B2102CF2DB3A48007840F080003849F4
:10125000087000F015FB40F283131122354C144145
:1012600004FB03F13448B0FBF1F4641D0A26B4FB1F
:10127000F6F43234314E348034462488641104EB61
:101280004406C6EBC414FA2606EBC4042C4E348084
:101290003E210C48FEF7EDFF0A480021C1870621D8
:1012A000022004F0CCFA012026490860C003264938
:1012B0000861401048612846FEF76CFF70BD0000D1
:1012C0006400002088120020080C014016770008F6
:1012D000415353455254206572726F7221212D2D56
:1012E00025733A25640A000008080140205645523B
:1012F00053494F4E2076616C75653A2025780A0077
:101300003020504B544C454E2076616C75653A2028
:1013100025780A003120504B544C454E2076616CA4
:1013200075653A2025780A00D076000878000020FC
:101330007E00002080BA8C01007355006000002000
:10134000620000201404014000200140044800789D
:101350006D214843433002490870084600787047C1
:101360007E00002010B50446402202492046FEF7C8
:1013700065FF10BD8812002070B500BF14480078CA
:10138000032808D000BF40F22952124912A003F0EE
:101390007FFD00BFFEE700BF4FF47A7400BF382026
:1013A00004F03CFA10F0500F00D007E0402000F0AD
:1013B00047FAA4F1400004B2002CF0DC00BF342056
:1013C00004F02CFA0546284600F022FA70BD000011
:1013D0007800002056770008415353455254206549
:1013E00072726F7221212D2D25733A25640A000037
:1013F00030B505461048007808B9002030BD0023FC
:10140000002400210EE06A5C0C48405C904201D14F
:10141000581CC3B20A48405C904201D1601CC4B25F
:10142000481CC1B20429EEDB042C01D0042B01D1ED
:101430000020E3E70120E1E7790000207A000020A6
:101440000E77000810B5012004F06EFB040006D0F2
:10145000201DFFF787FF204603F0E4FF02E002A013
:1014600003F016FD10BD00000A0A6E6F20726F6F48
:101470006D20666F722072656365696365206E65B5
:1014800077207061636B61676521210A00000000AD
:1014900010B500BF0B480078012808D100BF4FF4F9
:1014A0009362094909A003F0F3FC00BFFEE700BF07
:1014B00004480078032804D100F0E2F90220014931
:1014C000087010BD780000204A770008415353454A
:1014D0005254206572726F7221212D2D25733A2589
:1014E000640A000010B500BF0B480078012808D13D
:1014F00000BF4FF48C62094909A003F0C9FC00BF8A
:10150000FEE700BF04480078032804D00320024906
:10151000087000F0CFF910BD780000204077000877
:10152000415353455254206572726F7221212D2D03
:1015300025733A25640A000010B5044600BF042C48
:1015400007DB00BF9B220A490AA003F0A1FC00BFF1
:10155000FEE700BF00F094F90C48015D0A2004F09A
:101560006EF90B480078032801D100F0A3F910BDF3
:1015700060770008415353455254206572726F7270
:1015800021212D2D25733A25640A000012770008C9
:101590007800002010B5044620780A49097888426E
:1015A00001D1012010BD062107A003F071FC00202D
:1015B00004E0215C0A4A1154411CC8B20428F8DB3B
:1015C0000020EFE70E7700080A096861726477610E
:1015D000726520616464723A20253032780A000016
:1015E0007A00002010B5FEF7D1FD044607480078C8
:1015F000012807D0FFF74CFF392004F0DFF8012065
:10160000024908702046FEF7C5FD10BD7800002095
:101610002DE9F05F07460D464FF0000A00BF554820
:101620000078012808D100BF40F25322524953A04C
:1016300003F02EFC00BFFEE700BFFEF7A7FD8346C8
:101640004FF40040534948614010086100F018F918
:101650003878401C00F0FF084146384604F0F7F89F
:1016600065B9352004F0AAF800BF4B48006810F0B7
:10167000010FFAD001204849086062E000BF012D47
:1016800008D000BF40F27E223B493CA003F000FCA2
:1016900000BFFEE700BF04261B21022004F0CFF8A4
:1016A00000BF342004F08AF84FF47A7900BF382064
:1016B00004F0B4F810F0500F00D009E0402000F022
:1016C000BFF8A9F140000FFA80F9B9F1000FEEDC84
:1016D00000BF012030490860352004F06FF8192060
:1016E00000F0AEF82C48006810F0010F12D0012075
:1016F00029490860294C06E02948006810F0010FCC
:1017000000D002E0641E002CF6D100BF0CB94FF0EF
:10171000010A15E0362004F051F800BF3D2004F026
:101720004DF810F0F00FF9D13A2004F047F826B147
:1017300000F092F8701EC6B2B3E74FF0010A00BF86
:1017400000BF3B2004F03AF80621022004F077F8AD
:1017500008480078032801D100F0ACF84FF480402D
:101760000C494861400008615846FEF713FD504699
:10177000BDE8F09F780000202077000841535345D2
:101780005254206572726F7221212D2D25733A25D6
:10179000640A00000020014014040140407E05005E
:1017A0000808014010B516480078012800D010BD87
:1017B00001201449086000BF1348006810F0400F72
:1017C000FAD101200F49091F086081212C2004F063
:1017D00036F835212D2004F032F809212E2004F0AE
:1017E0002EF8022006490870362003F0E7FF00BFFC
:1017F0003D2003F0E3FF10F0F00FF9D100BFD6E772
:1018000078000020140C01400808014000BFFEE7EA
:101810000246802A07DBA2F5807000EBD0735B10D4
:10182000A3F14F0105E0104602EBD0735B10A3F16A
:101830004F0111F1800F01DA6FF07F0148B270475C
:1018400070B50446FEF7A2FC0546204605F0AEFE44
:101850002846FEF79FFC70BD70B5FFF777FD00F0DE
:101860000F00451C002405E004480088FFF7E8FF4E
:10187000601CC4B2AC42F7DB70BD00006200002007
:1018800010B5062001218140084A430942F823107F
:1018900000BF362003F092FF3B2003F08FFF3A2079
:1018A00003F08CFF01200249086010BD80E100E0D8
:1018B0001404014010B5012008490860342003F0E9
:1018C0007DFF06200121814042094FF0E02303EB18
:1018D0008202C2F8001100BF10BD000014040140D4
:1018E00038B500BF45480078032808D000BF4FF442
:1018F0005D72434943A003F0CBFA00BFFEE700BF8F
:101900003B2003F08BFF054600BF2C463B2003F035
:1019100085FF0546AC42F8D1002C6DD03F480068E9
:10192000401C3E4908600121684603F07FFF9DF896
:101930000000C01C844208D19DF80000401C3E28D5
:1019400003DC9DF800000B281BDA35480068401CBA
:1019500033490860FEF71AFC0546362003F02EFFD7
:1019600000BF3D2003F02AFF10F0F00FF9D13A201C
:1019700003F024FF342003F021FF2846FEF70AFC81
:101980003AE03E212748FEF774FC9DF80000254907
:1019900008709DF800102348401C03F047FF022107
:1019A00020483E3003F042FF1E4890F83F0010F000
:1019B000800F05D11C480068401C1B4908601BE0D3
:1019C0001848401CFFF714FDB0B91648401DFFF73A
:1019D00011FB88B1134991F83E00FFF719FF114937
:1019E00081F83E00084690F83F0000F07F010D4866
:1019F00080F83F10FFF726FD38BD0000780000207A
:101A00002E770008415353455254206572726F720D
:101A100021212D2D25733A25640A00007400002031
:101A200070000020881200206C00002000BFFEE73C
:101A300070B5002100230F22C4780CB3164C246823
:101A400004F4E064C4F5E064210AC1F10403CA406F
:101A5000447804FA03F184781440214309010F4CBF
:101A60000678A155047804F01F050124AC400578E0
:101A70006D114FF0E02606EB8505C5F8004109E041
:101A8000047804F01F050124AC40054D067876115A
:101A900045F8264070BD00000CED00E000E400E0D9
:101AA00080E100E02DE9F04105460E4614464FF076
:101AB00000080CB9BDE8F08115B904202070F9E7E1
:101AC00016B90C202070F5E719480078002802DDCF
:101AD00012202070EEE72878012808D0022807D0CD
:101AE000032802D0042804D100E000BF00BF00BFDB
:101AF00002E001202070DDE700BFFEF747FB8046D3
:101B0000304601F0B1F907460F2F05DD4046FEF7DC
:101B100041FB0B202070CDE7314605F10F0001F0AD
:101B200095F94046FEF736FB0020207000BFC1E764
:101B30005108002010B500F017F800F0F7FF01F091
:101B40001FF801F041F800F0C9FF00F0A1FF01F01B
:101B5000C5F801F0E9F801F06BF801F08FF800F03A
:101B600079FD00F007F810BD00200149088070479A
:101B7000340800207047000010B500242348007886
:101B8000012841D1FEF702FB0446214800780028D5
:101B900004DD1F480078401E1D4908701C4800786D
:101BA00000282ED11B48007800282AD101F038F9EE
:101BB0001948007819490978884222D018481649EE
:101BC000097850F82100012814DD154812490978D8
:101BD00050F821001349086008460068406B401C1B
:101BE0000968486310480068401C0F490860FEF708
:101BF000EBFA06E008480278084801780BA003F0E9
:101C000047F92046FEF7C6FA10BD00005A0800202A
:101C100051080020520800205408002053080020DA
:101C20001881002068080020380800204F53496EB2
:101C300074457869743A0A4F535072696F437572EC
:101C40003A25640A4F535072696F48696768526455
:101C5000793A25640A0000002DE9F04106460D4658
:101C60004FF0000815B90020BDE8F0811EB904202E
:101C700028700020F8E73078022803D0012028706F
:101C80000020F1E7FEF782FA80467468E08A0028B7
:101C90000FDD2169081D20610F68E08A401EE08287
:101CA000A1682069884201D1606820610020287005
:101CB00002E01F20287000274046FEF76BFA3846E6
:101CC000D2E700002DE9F04106460F464FF000082C
:101CD00022480078002802DD0020BDE8F081FEF7F0
:101CE00055FA80461E480468006820B11C48006808
:101CF00040681B4908604046FEF74CFA0CB3FEF7FB
:101D000045FA804617480568E5B10068006815493E
:101D100008604046FEF73EFA6E6006EB8700A8605A
:101D2000EE602E61AF820020E88202202070002049
:101D3000208165603F20E07300212174204600F07F
:101D400099FE08E006480068606005480460404667
:101D5000FEF720FA00242046BFE7000051080020CB
:101D60003C080020780800202DE9F0470646884608
:101D700015464FF0000A15B90020BDE8F0871EB9DE
:101D8000042028700020F8E73078022803D00120D2
:101D900028700020F1E73E480078002803DD02208B
:101DA00028700020E9E73B480078002803DD0D207B
:101DB00028700020E1E7FEF7E9F982467468E08ABE
:101DC000002813DD2169081D20610F68E08A401E8C
:101DD000E082A1682069884201D160682061504694
:101DE000FEF7D8F9002028703846C6E72A48006870
:101DF00090F82C0040F004002749096881F82C0075
:101E000000202549096881F82D0023480068A0F8C2
:101E10002A80304600F0F0FD5046FEF7BBF900F096
:101E20009FFFFEF7B3F982461B48006890F82D002B
:101E3000C8B11948006890F82D90304600F046FD72
:101E40005046FEF7A7F9B9F1010F03D0B9F1020F1F
:101E500003D000BF0A20287002E00E20287000BFC7
:101E600000BF002089E70C480068076A00200A4983
:101E7000096808620849096881F82C000649096860
:101E8000C8615046FEF786F900202870384674E78E
:101E90005108002052080020600800202DE9F04180
:101EA00005460E46002715B90420BDE8F0812878C4
:101EB000022801D00120F8E7FEF768F90746A87A62
:101EC00060B1002304223146284600F027FD384641
:101ED000FEF760F900F044FF0020E6E76C68E08A56
:101EE000A18A884204DB3846FEF754F91E20DCE75D
:101EF000E168081DE0600E60E08A401CE082D4E9E1
:101F00000210884201D16068E0603846FEF742F96D
:101F10000020CAE770B50546002612480078002860
:101F200001DD002070BDFEF731F906460E48046859
:101F3000006820B10C48006840680B4908603046D2
:101F4000FEF728F95CB10320207025810020606035
:101F50003F20E07300212174204600F08BFD2046D5
:101F6000E0E70000510800203C0800202DE9F04186
:101F700005460E4614464FF000080CB9BDE8F08146
:101F800015B904202070F9E72878032802D0012031
:101F90002070F3E730480078002802DD022020702E
:101FA000ECE72E480078002802DD0D202070E5E7E0
:101FB000FEF7ECF880462889002808DD2889401EB5
:101FC00028814046FEF7E6F800202070D6E7244836
:101FD000006890F82C0040F001002149096881F860
:101FE0002C0000201E49096881F82D001C4800685B
:101FF0004685284600F000FD4046FEF7CBF800F08D
:10200000AFFEFEF7C3F880461548006890F82D0033
:10201000B0B11348006890F82D70284600F056FCC7
:102020004046FEF7B7F8012F02D0022F03D000BFC1
:102030000A20207002E00E20207000BF00BF9DE744
:10204000002007490968C8614046FEF7A3F8002050
:10205000207000BF92E700005108002052080020C5
:102060006008002070B5044600250CB9042070BD3E
:102070002078032801D00120F9E7FEF787F805460C
:10208000A07A60B1002301221946204600F046FCE8
:102090002846FEF77FF800F063FE0020E7E720897E
:1020A0004FF6FF71884207D22089401C20812846C4
:1020B000FEF770F80020DAE72846FEF76BF83220CA
:1020C000D5E7000010B50B48007890B900F0A8FEE5
:1020D000094800780949087009480749097850F803
:1020E0002100084908600846006807490860FEF7B3
:1020F00054F810BD5A08002054080020530800204E
:1021000018810020680800206008002010B5002415
:10211000022000F0D1F9FEF739F8044600200B49FF
:1021200008602046FEF736F80A2000F0C5F9FEF7F1
:102130002DF8044605480068054908600120054956
:1021400008702046FEF726F810BD00005C0800204D
:102150004808002050080020704700002DE9FE4F7D
:1021600006460F4690461C464FF000091F2C02DD24
:102170002A20BDE8FE8FFEF709F881461F48007847
:10218000002804DD4846FEF705F83C20F1E71C482E
:1021900050F8240060BB0120194941F8240048464A
:1021A000FDF7F8FF002342463946304600F036F985
:1021B000824600200090019003460246514602905C
:1021C000204600F05BFE054635B90E480078012830
:1021D0000CD100F0C5FD09E0FDF7D8FF81460020D5
:1021E000074941F824004846FDF7D4FF2846C0E7D8
:1021F0004846FDF7CFFF2820BBE70000510800202C
:10220000188100205A0800202DE9F04F85B0814642
:102210008A4693461C46DDE90F78129D0020039004
:102220001F2C03DD2A2005B0BDE8F08FFDF7AEFFBF
:10223000039022480078002804DD0398FDF7AAFFE8
:102240003C20F0E71E4850F8240088BB01201C49C0
:1022500041F824000398FDF79DFF2A464146384681
:1022600000F01AFF2B465A465146484600F0D6F871
:1022700004901198CDE9008002953A4620460E9BC5
:10228000049900F0FBFD064636B90E480078012897
:102290000CD100F065FD09E0FDF778FF0390002008
:1022A000074941F824000398FDF774FF3046BAE768
:1022B000FFE70398FDF76EFF2820B4E751080020E0
:1022C000188100205A080020704770472DE9F04718
:1022D00005460F4614464FF000090CB9BDE8F087DB
:1022E0001F2D04DDFF2D02D02A202070F6E717B93C
:1022F0000C202070F2E71D480078002802DD122033
:102300002070EBE7FDF742FF8146FF2D03D118480F
:10231000006890F82E50174850F825602EB94846AE
:10232000FDF738FF43202070D8E7012E05D148463D
:10233000FDF730FF43202070D0E7384600F094FDD1
:102340008046B8F10F0F05DD4846FDF723FF412019
:102350002070C3E7394606F1480000F077FD484693
:10236000FDF718FF0020207000BFB7E751080020DC
:102370006008002018810020704700002DE9F04718
:1023800006460C464FF0000A1F2E04DDFF2E02D039
:102390002A20BDE8F0870CB90920FAE70020206068
:1023A0006060FDF7F3FE8246FF2E03D119480068F6
:1023B00090F82E60184850F8265025B95046FDF781
:1023C000E9FE4320E5E7012D04D15046FDF7E2FE8A
:1023D0004320DEE7288A10F0010F04D15046FDF7B4
:1023E000D9FE4520D5E70027D5F80C90D5F8088010
:1023F0005046FDF7CFFE00E07F1C58F8041B002973
:10240000FAD0B8002060A9EB0700800060600020CF
:10241000BFE70000600800201881002070B5044666
:1024200010464FF080750560051F28462C606FF040
:102430000106051F28462E604FF01236051F28465C
:102440002E604FF00336051F28462E604FF00236EF
:10245000051F28462E607610051F28462E60051F92
:10246000284629604FF01136051F28462E604FF090
:102470001036051F28462E604FF00936051F2846E6
:102480002E604FF00836051F28462E604FF00736A5
:10249000051F28462E604FF00636051F28462E6081
:1024A0004FF00536051F28462E604FF00436051FF5
:1024B00028462E6070BD704770B505460026164848
:1024C0000078002800DD70BD002D23DDFDF75EFEE5
:1024D00006461248006890F830401148005D0F49E8
:1024E000096891F8311088430D4908550846005D88
:1024F00040B90A48006890F832100A4800788843CA
:10250000084908700548006845853046FDF742FED9
:1025100000F026FC00BFD6E751080020600800202C
:10252000560800205508002070B5002600F076F807
:10253000FDF72CFE064633480068401C3149086010
:102540003046FDF727FE30480078012858D12F4843
:10255000007820B1012804D0022809D103E0012528
:102560000BE0002509E0012501202849087004E05E
:10257000012500202549087000BF00BF05B970BDC6
:102580002348046838E0FDF701FE0646608D78B305
:10259000608D401E0004000C608529D194F82C0049
:1025A00010F0370F09D014F82C0F20F037002070EE
:1025B00001206070A4F12C0402E0002084F82D00BA
:1025C00094F82C0010F0080F12D104F13004A07818
:1025D0001049097840EA01000E49087020780E4938
:1025E000085C617840EA010014F830190A4A505436
:1025F00064693046FDF7CEFD94F82E001F28C2D145
:1026000000BFBCE77C0800205A08002070080020AA
:102610006C080020550800205608002010B5074817
:102620000088401C05490880084600880A2803DB0A
:102630000020088000F004F810BD000034080020DD
:1026400010B503480068FFF70DFD0446204610BD95
:102650008C080020F8B54FF45071274800F034FB87
:102660004021264800F030FB234C04F134060025BD
:102670000FE064202070002084F83100E6603F20E5
:1026800084F8200000212120015534343436681CA0
:1026900085B20F2DEDDB64202070002084F831001E
:1026A000E0603F2084F82000002121200155002017
:1026B00013490860134908801020134908800E4808
:1026C000124908600120FFF725FC1149086000202D
:1026D000FFF720FC0F4908606A460FA10C4800680C
:1026E000FFF7E0F96A460FA10A480068FFF7DAF938
:1026F00000F01EF8F8BD0000B48E0020F492002017
:102700008408002082080020800800209008002013
:10271000880800208C0800204F532D546D724C6F98
:10272000636B00004F532D546D72536967000000B6
:1027300000B587B00320002140220A4BCDE90132C9
:10274000CDE903104FF6FD701D23064AFC320090C0
:102750000548FFF759FD06AA04A11D20FFF7B6FDA5
:1027600007B000BDF4910020FD27000875432F4FEE
:10277000532D494920546D720000000070B50B467E
:10278000032580F83150012B05D1154EC5693668F7
:10279000354445610CE085692DB9114EC56936682F
:1027A0003544456104E00E4E85693668354445611F
:1027B000456905F007040B4D05EBC4010D682DB903
:1027C00008600025C56001258D8006E00A68086064
:1027D000C26010618D886D1C8D800025056170BD03
:1027E00084080020F492002008B56A4600210248BF
:1027F0000068FFF7BBFB08BD8808002008B500BFD4
:102800006A46002119480068FFF7B0FBFFF7ECFFAC
:1028100017480068401C164908600846006800F028
:102820000708144800EBC8073C681AE0E66810493E
:1028300060690968884213D1656815B12046A168AE
:10284000A847204600F018F894F83000022804D178
:1028500001212046FFF792FF02E0022084F83100B8
:102860003446002CE2D100F029F8C9E78C0800209A
:1028700084080020F492002030B5456905F0070473
:102880000D4D05EBC4031D68854205D1C168196073
:1028900039B100250D6104E00169C268CA6002B166
:1028A0001161012580F831500025C56005619D88C2
:1028B0006D1E9D8030BD0000F492002010B50248CE
:1028C0000068FFF7CFFB10BD88080020124A12688D
:1028D00092F8301000F10B02525C0F4B1B6893F81A
:1028E00031309A4300F10B035A541A46525C32B904
:1028F000827A094B1B6893F832309A438272002225
:10290000054B1B6883F82D20034B1B6883F82C2094
:10291000014B1B68DA617047600800202DE9F04721
:1029200004460D46164694F80A90DFF8BCA01AF843
:1029300009204FF0010909FA02F909F0FF0804F132
:102940000B0919F802901AF809704FF0010909FAF9
:1029500007F909F0FF0C07EBC20909F0FF0004F1C9
:102960000B0919F8029029EA0C0904F10B0A0AF87C
:102970000290D14619F80290B9F1000F05D194F8F0
:102980000A9029EA080984F80A90DFF8609059F85B
:1029900020104FF00009A1F82A90C1F81C900D6298
:1029A00081F82D3091F82C9029EA060981F82C90B5
:1029B00091F82C90B9F1000F13D1DFF8349099F809
:1029C000009049EA0809DFF828A08AF80090DFF8AB
:1029D000249019F8029049EA0C09DFF818A00AF8C7
:1029E0000290BDE8F08700003179000818810020CE
:1029F000550800205608002010B51B4A1268D06107
:102A0000194A126892F83010184A525C164B1B682B
:102A100093F831309A43154B5A541A46525C42B9D6
:102A2000114A126892F83230114A12789A43104BC8
:102A30001A700D4A126892F8303000F10B02D25C25
:102A4000094B1B6893F831301A43074B1B6893F806
:102A5000304000F10B031A55827A034B1B6893F840
:102A600032301A43827210BD6008002056080020E0
:102A7000550800200023837200F10B01002204E0BE
:102A8000002301F8013B531CDAB2042AF8DB70473B
:102A900070B58C210F4800F017F90E4C04F11C069C
:102AA00000250AE00020207066603F20A07200210F
:102AB000E1721C341C36681C85B2042DF2DB002048
:102AC000207060603F20A0720021E172014802493D
:102AD000086070BD8C7E00204008002030B54FF4A7
:102AE000A061104800F0F0F80E4B03F1200500241F
:102AF0000AE0002018705D603F20D873002119742F
:102B000020332035601C84B2272CF2DB00201870A3
:102B100058603F20D87300211974024802490860A8
:102B200030BD00008C7900203C08002000200A49BC
:102B300008600A4908700A4908700A4908700A4979
:102B400008700A4908600A4908600A4908600A4989
:102B500008600A49087070477C080020510800206E
:102B6000520800205B0800205A0800203808002086
:102B70005C0800204C080020480800205008002075
:102B800000220B4B1A700B49002004E0002201F8D0
:102B9000012B421CD0B20428F8DB0022064B1A702D
:102BA000064B1A70064B1A60064B1A6070470000FD
:102BB0005508002056080020530800205408002023
:102BC000680800206008002030B54FF430611448D8
:102BD00000F07AF88021134800F076F8104B03F1EA
:102BE000580500240AE05D613F2083F84800002179
:102BF0004920C15458335835601CC4B21F2CF2D33D
:102C0000002058613F2083F8480000214920C1542A
:102C100000200549086002480449086030BD0000F2
:102C200098810020188100206C0800206408002092
:102C300000B587B00320002140220A4BCDE90132C4
:102C4000CDE903104FF6FF701F23064AFC320090B7
:102C50000548FFF7D9FA06AA04A11F20FFF736FBA3
:102C600007B000BD18800020A92F000875432F4F22
:102C7000532D49492049646C6500000000B587B0B8
:102C80000320002140220A4BCDE90132CDE9031097
:102C90004FF6FE701E23064AFC3200900548FFF7EF
:102CA000B3FA06AA04A11E20FFF710FB07B000BD6F
:102CB000187F0020CD2F000875432F4F532D494911
:102CC000205374617400000004E0002200F8012B1E
:102CD0004A1E91B20029F8DC7047000070B5B4219B
:102CE0000F48FFF7F1FF0E4C00250DE0681C00EBCC
:102CF000C0000B4901EB800060603F20207500217F
:102D000061752434681C85B2042DEFDB00206060FF
:102D10003F2020750021617501480249086070BD9F
:102D2000988C00207408002070B54FF4B4710A48E4
:102D3000FFF7CAFF084C04F11806002504E02660DE
:102D400018341836681C85B20E2DF8DB0020206080
:102D500001480249086070BD4C8D002078080020B1
:102D600010B50024FDF712FA04461B48007800282D
:102D70002ED11A48007800282AD100F051F81848BE
:102D8000007818490978884222D0174814490978F0
:102D900050F82100012814DD13481149097850F832
:102DA00021001249086008460068406B401C096811
:102DB00048630F480068401C0D490860FDF7FDF9A5
:102DC00006E007480278074801780AA002F060F898
:102DD0002046FDF7DFF910BD510800205208002001
:102DE00054080020530800201881002068080020A3
:102DF000380800204F535F53636865643A0A4F53A5
:102E00005072696F4375723A25640A4F5350726964
:102E10006F486967685264793A25640A00000000C7
:102E20000649074A1278885C0649095C034A515CE6
:102E300001EBC001044A11707047000031790008AD
:102E400055080020560800205408002002460020A3
:102E500005E011F8013B02F8013B431CD8B20B78A6
:102E6000002BF6D1137070470146002002E0491C88
:102E7000421CD0B20A78002AF9D170472DE9F84FE8
:102E800005460E4617469846DDE90BABDDF828905F
:102E900000200090FDF77AF900903D480468002C6E
:102EA00071D054F8140F3A4908600098FDF772F990
:102EB00044F8146CA576002020766076E08244F811
:102EC00010AC44F8089C44F80C7C24F804BC24F8AA
:102ED000028CE077E8102077217F01208840A077DE
:102EE00005F00700E076E17E012088406077002051
:102EF000A0602061E0602062A0626062E062206306
:102F00003F2084F83400A4F114044FF000014FF086
:102F1000490001552046FFF71FF92046FFF7D4F975
:102F2000FDF734F900901B4840F825401A48006826
:102F300060610020A0611848006810B11648006860
:102F400084611548046004F13004A07813490978BD
:102F500040EA01001149087020781149085C617845
:102F600040EA010014F830190D4A50540D48007819
:102F700000F101000B4908700098FDF70BF90020E3
:102F8000BDE8F88FFFE70098FDF704F94220F7E766
:102F900064080020188100206C08002055080020DB
:102FA000560800205B080020002400BFFDF7EEF863
:102FB000044605480068401C034908602046FDF7A8
:102FC000E9F8FFF782F9F1E75C080020002700BF6D
:102FD00002E01420FFF770FA1B4800780028F8D0B0
:102FE0001A4800686421B0FBF1F400BFFDF7CEF889
:102FF000074617480068174908601548066800200A
:10300000134908603846FDF7C5F86CB1B6FBF4F01B
:10301000C0F1640045B2002D02DB0F4805700BE0E3
:1030200000200D49087007E000200B490870074890
:1030300000686421B0FBF1F4FFF79EF900F00EF890
:103040000A20FFF739FAD1E750080020480800208D
:103050005C0800204C080020440800207CB50025B6
:1030600014E069462846FFF789F9064666B909481B
:1030700050F8254044B1012C06D0D4E9020100EB00
:103080008100206401986064681CC5B21F2DE8DDD2
:103090007CBD00001881002012F0010F08D012F052
:1030A000020F05D002E0491E002308C00029FAD112
:1030B00070472DE9F84F0446884691469A46FDF739
:1030C00065F8009004F06CFA8346A068050067D0AC
:1030D00000BFA868ABEB0000B0F57A7F01D90227EA
:1030E0000BE0287B404507D1687B484504D16868E0
:1030F000504501D1012700E00027BFB12868A0603A
:10310000A06808B90020E0606068286065602068F9
:1031100010B12068401E2060012F05D10098FDF7F6
:1031200039F82846BDE8F88FA56800E001E0002DD9
:10313000CFD100BF25B90098FDF72CF80020F1E7AA
:103140002E682BE0B068ABEB0000B0F57A7F01D9B8
:1031500002270BE0307B404507D1707B484504D106
:103160007068504501D1012700E00027A7B1306801
:10317000286000B9E560606830606660206810B162
:103180002068401E2060012F04D10098FDF702F84E
:103190003046C7E72E6801E035463668002ED1D1AB
:1031A0000098FCF7F7FF0020BCE7000029B1064AB1
:1031B000D2690243044BDA6104E0034AD2698243D4
:1031C000014BDA61704700000010024029B1064A45
:1031D00092690243044B9A6104E0034A9269824374
:1031E000014B9A61704700000010024030B5002189
:1031F0000022002400232D4D6D6805F00C0121B143
:10320000042905D0082923D105E0294D056022E0D5
:10321000274D05601FE0254D6D6805F47012234DA4
:103220006D6805F48034022505EB92421CB9214DEE
:10323000554305600BE01D4D6D6815F4003F03D04C
:103240001C4D5543056002E0194D5543056002E0F1
:10325000174D056000BF00BF144D6D6805F0F0010B
:103260000909154D6B5C0568DD4045600F4D6D68C3
:1032700005F4E061090A104D6B5C4568DD4085602E
:103280000A4D6D6805F46051C90A0B4D6B5C4568C9
:10329000DD40C560054D6D6805F44041890B074D63
:1032A0006B5CC568B5FBF3F5056130BD00100240ED
:1032B00000127A0000093D004C0000205C00002054
:1032C0002DE9F04104460D460027A4F57F40FF3864
:1032D00000D044B910480068C8B1002028600E48EA
:1032E0000068BDE8F081274600260EE00A48006825
:1032F00020B10020286008480068F2E70020074954
:103300000860012002F012FA761CBE42EED30A20B9
:1033100028600020E5E70000E807002008080020FA
:103320002DE9F04788B004460D4616461F464FF07B
:10333000020A4FF00008204602F03EFE8146B9F135
:10334000000F30D007208DF8000000208DF801001C
:103350008DF802408DF8035001960297D9F80200CB
:10336000049002F071FE0068039002F021FE0590C7
:10337000CDF818D014208DF81C0006208DF81D0003
:1033800005AA0321022000F05FF88246FDF776FED1
:103390008046B8F1030F06D0B8F1010F01D1FEF756
:1033A00001FAFEF79FF8504608B0BDE8F08700002C
:1033B00070B50446FCF7EAFE05460348046028465B
:1033C000FCF7E8FE70BD00008000002010B5FCF79F
:1033D000DDFE0446362002F0F1F900BF3D2002F088
:1033E000EDF910F0F00FF9D13A2002F0E7F93420AE
:1033F00002F0E4F92046FCF7CDFE10BD70B505469D
:1034000010480078A8B9FDF757FE284603F068F881
:10341000040001D0204670BDFEF7C4F9FEF762F843
:1034200002F012FE0646FEF7B5F8FDF7FDFDFDF7CA
:1034300087F801200349087002F03AFF044620464D
:10344000E9E700001C0700202DE9F04105460C4685
:1034500016460027082D3DD2DFE805F03C3D152536
:103460002B0A04303146204602F00DFD074634E0B9
:10347000012C00D02CB93146204602F01CFD074635
:1034800000E0022729E0032C04D1304603F0EEF9D6
:10349000074607E0022C04D1304603F0D5F9074671
:1034A00000E0022719E03146204603F096F907466E
:1034B00013E0204602F00EFF07460EE00E2C03D16B
:1034C00001F042FF074604E00F2C02D101F05EFF3D
:1034D000074602E000BF022700BF00BF3846BDE834
:1034E000F08110B50446204602F022FF10BD10B551
:1034F0000446204602F0C6FF002010BD70B5044609
:1035000002F07AFD05460DB9012070BD257000203E
:10351000FBE710B50446204603F02AF810BD2DE95C
:10352000FE4304460E461746204602F045FD05467A
:103530004FF0020835B10021284602F093FC5FEA03
:10354000000802D04046BDE8FE8301208DF804004B
:103550008DF80840002003463A463146009001A805
:1035600003F0A8F9EFE7000010B504460020034976
:1035700008702046FFF742FF10BD00001C07002026
:103580002DE9F04781460E461746484602F014FDE5
:1035900005464FF0020A35B10121284602F062FCCF
:1035A0005FEA000A02D05046BDE8F0870EB1322F24
:1035B00001DD0220F8E795F809806B783A4631463C
:1035C000404602F005FC040001D10320ECE7D5F8E9
:1035D0000210C4F80510601D02F02EFE18B1032081
:1035E00020700020E0E70121204603F0D7F9DBE757
:1035F0002DE9F04782460E461746B0463D46002468
:103600004FF0140923E04FF0140900BF00201249C5
:103610000860322D01DD322000E02846C2B241466A
:103620005046FFF7ADFF044604B908E0012001F061
:10363000EDFAA9F1010914B1B9F1000FE6DC00BF00
:1036400014B12046BDE8F08708F13208323D002D64
:10365000D9DC2046F6E700000808002000B587B056
:10366000012141F20C00FFF7B1FDE020ADF80400AC
:1036700018208DF8070003208DF8060001A91A48CC
:10368000FDF7E6FB0120ADF8040010208DF80700DF
:1036900001A91648FDF7DCFB012014491031086030
:1036A0000020ADF808004FF48270ADF80A00002049
:1036B000ADF80C00ADF80E00ADF810004815ADF8EF
:1036C00012001020ADF814000020ADF816000720FD
:1036D000ADF8180002A9064800F018F801210448C6
:1036E00000F008F807B000BD00080140000C0140E0
:1036F0000030014021B1028842F04002028004E023
:1037000002884FF6BF731A400280704710B500223E
:10371000028802F441520B884C8823438C8823434F
:10372000CC8823430C8923434C8923438C8923432E
:10373000CC8923431A430280838B4FF2FF742340CA
:1037400083830B8A038210BD014600BF084A128999
:1037500012F0020FFAD0064A918100BF044A128982
:1037600012F0010FFAD0024A9289D0B270470000DD
:103770000030014038B504460D46214951F8241067
:1037800041F001000121FFF721FD34B91D4951F835
:1037900024000121FFF71AFD05E01A4951F8240021
:1037A0000121FFF703FD184830F81400ADF80000C0
:1037B00018208DF8030003208DF80200134951F8FA
:1037C00024006946FDF744FB114830F81400ADF8B9
:1037D000000004208DF803000C4951F824006946CC
:1037E000FDF736FB0B4951F82400294600F0E0FABA
:1037F000084951F82400012100F09CFA38BD00006E
:10380000B8760008AC760008C476000840000020B6
:10381000CA7600083400002038B504460D4951F836
:1038200024000121FFF7D2FC0B4830F81400ADF85A
:10383000000010208DF8030003208DF802000749D6
:1038400051F824006946FDF703FB204600F008F814
:1038500038BD00002C760008247600080400002003
:10386000074931F81010074A52F820201161044925
:1038700031F81010034A52F82020116170470000FF
:103880002476000804000020034931F81010034A90
:1038900052F820205161704724760008040000206F
:1038A00039B90F4A32F810200E4B53F820301A6104
:1038B00015E0012907D10A4A32F81020094B53F8C4
:1038C00020305A610BE0074A52F82020D268044B9E
:1038D00033F810305A40034B53F82030DA60704709
:1038E0002476000804000020064951F82010C96819
:1038F000054A32F810205140024A52F82020D16087
:1039000070470000040000202476000870472DE96D
:10391000F04705460E4617469846FCF737FC8146A9
:10392000AC680FE0207BB0420BD1607BB84208D17D
:103930006068404505D14846FCF72CFC2046BDE8B0
:10394000F0872468002CEDD14846FCF723FC0020CA
:10395000F5E7000070B505460E460DB9022070BDB2
:1039600000240BE0295D074800F072FA00BF4021F7
:10397000044800F0EBF90028F9D0641CB442F1D3FC
:103980000020ECE70038014010B500F001F810BD50
:1039900000210020304A126842F480322E4B1A6017
:1039A00000BF2D4A126802F40030491C10B9B1F56D
:1039B000A06FF6D1284A126812F4003F01D001200E
:1039C00000E00020012843D1244A126842F010028E
:1039D000224B1A601A46126822F003021A601A4635
:1039E000126842F002021A601B4A52681A4B5A606F
:1039F0001A4652685A601A46526842F480625A6007
:103A00001A46526822F47C125A601A46526842F4EE
:103A1000E8125A601A46126842F080721A6000BFBB
:103A20000D4A126812F0007FFAD00B4A526822F059
:103A30000302094B5A601A46526842F002025A6069
:103A400000BF054A526802F00C02082AF9D101E0D1
:103A500000BFFEE770470000001002400020024057
:103A6000042804DA0121024A02EB00125170704767
:103A7000380A002010B5FCF789FB04460648007898
:103A8000401C054908702046FCF784FBFEF74CFDFE
:103A9000FEF772F810BD00005108002070B52448F0
:103AA000006840F00100224908600846406821494A
:103AB00008401F494860084600681F4908401C49E3
:103AC00008600846006820F48020086008464068C6
:103AD00020F4FE0048604FF41F008860FFF754FF99
:103AE0001649B1F1807F01D301201DE021F07F4014
:103AF000401E4FF0E022506150170022002807DAE4
:103B000013071D0E0E4B00F00F04241F1D5503E07C
:103B100013071C0E0B4B1C5400BF00204FF0E0227B
:103B2000906107201061002008B100BFFEE770BD62
:103B3000001002400000FFF8FFFFF6FE80FC0A00C4
:103B400018ED00E000E400E070B52E4DFCF71EFB20
:103B500006462D480078401C2B4908703046FCF77B
:103B600019FB288A10F0020F48D072B64FF6FD708C
:103B70002882A88E00F57A70A88624480068401C28
:103B80002249086062B6002436E0214800EB0410A8
:103B9000007880B31E4800EB0410407858B31C48EE
:103BA00000EB0410806848B1194800EB04108068ED
:103BB000401E174901EB041188601CE0144800EB1B
:103BC0000410408840B9124800EB041040681049C6
:103BD00001EB0411886004E000200D4901EB0411A1
:103BE00048700B4800EB0410C06820B1084901EB95
:103BF0000411C8688047641C042CC6D3FDF7BCFFC1
:103C000070BD0000000400405108002000000020AA
:103C1000380A002021B1028842F00102028004E04B
:103C2000028840F2FE331A400280704710B51AB184
:103C300083890B43838104E08389CC43A4B223406E
:103C4000838110BD70B5002400220023058C4FF63F
:103C5000FE7635400584028C8388048B4FF68F7581
:103C60002C400D882C43751E2A400D892A434D880F
:103C70002A43CD8885860F4DA84202D00E4DA8421A
:103C800013D14FF6F7752A404D892A434FF6FB753D
:103C90002A408D882A4347F6FF652B4047F6FF559B
:103CA0002B408D892B43CD892B4383800483028451
:103CB00070BD0000002C014000340140028802F079
:103CC0008F020280CA884B881A4303881A430280F5
:103CD0008A8882850A880285054A904202D0054A70
:103CE000904201D10A7A0286012282827047000046
:103CF000002C01400034014070B5FCF747FA05463E
:103D00000A480078401C094908702846FCF742FA26
:103D10000748048814F0200F04D0011D0988C8B298
:103D200000F0D8FCFDF728FF70BD0000510800200E
:103D30000038014021B1828942F40052828104E0BE
:103D400082894DF6FF731A40828170470246002037
:103D5000B1F5007F00D100BF13880B4201D00120D4
:103D600000E000207047F0B503460024002600253F
:103D70000020A1F510676A3F00D100BF1846C1F3CB
:103D8000421401F01F06012707FA06F5012C01D1A4
:103D90000C3004E0022C01D1103000E014301AB1D4
:103DA00007682F43076002E00768AF430760F0BD74
:103DB0002DE9F04786B005460E460024A24600BF16
:103DC00000BF0027B08900B100BF2F462C8A4CF6F7
:103DD000FF700440F08804432C82AC894EF6F31047
:103DE0000440B08831890843718908430443AC8199
:103DF000AC8A4FF6FF400440B0890443AC8201A86E
:103E0000FFF7F4F91148874202D1DDF810A001E074
:103E1000DDF80CA00AEBCA0000EB0A10316889003B
:103E2000B0FBF1F86420B8FBF0F004012009642134
:103E300001FB1089322000EB0910B0FBF1F000F01B
:103E40000F0004432C8106B0BDE8F0870038014024
:103E5000C1F308028280704700BFFEE708B500206A
:103E6000009023E06A46002111480068FDF77CFFBE
:103E700004469DF80000C8B9C4B12646307970B92F
:103E8000751D2F4600F09CFBF9684EF66022114428
:103E9000884203D83988284600F0B0FB00E000BF14
:103EA00000BF204602F086FE002400BFDAE70000D3
:103EB000900700202DE9F04781460F46164606F18F
:103EC00005081FFA88F002F0EFFE044614B903203B
:103ED000BDE8F08737B1002E04DD32463946601D5B
:103EE000FCF7ACF92546A5F800803146384601F0CC
:103EF0006FFA688085F8049041462046FFF72AFD56
:103F00001CB1204602F056FE00240020E0E700002D
:103F10002DE9F04FD9B0054649AC4FF0140A1DB950
:103F2000002059B0BDE8F08FE878F52866D004DCB1
:103F3000F22807D0F3287DD135E0F6287ED0FE2880
:103F4000F9D157E012202080A87800F03F00042823
:103F500001D1A07001E00320A0705B480088A08020
:103F6000F220E07048A800F021FBBDF82201C0F368
:103F70000B00ADF8220155480078A0715448007834
:103F8000A32803D153480078E07101E00020E071DC
:103F90004898A06004F11009102089F80000022060
:103FA00089F8010087E0A8684890BDF82201C0F3B5
:103FB0000B00ADF82201BDF82201A97940EA0130D9
:103FC00080B2ADF8220148A800F078FD0646102026
:103FD00020800320A0703C480088A080F320E0707F
:103FE0003A480078A071012E01D0012000E00020A5
:103FF000E07160E0FCF7A6F8012092E701F0D8FF3D
:10400000459042A846900A208DF81C01A2208DF808
:104010001D0100BF012001F089FB45AA03210220F8
:10402000FFF712FA0646AAF1010A16B1BAF1000F1B
:10403000F0DC01E03DE001E0012072E74FF4807127
:1040400002A8FCF716F900200190834600272248B9
:1040500000788DF8080021480068C0B28DF809008A
:104060001F4800788DF80A000DF10B07D84613E0C1
:104070001C4810F8080038707F1C1A4911F8080015
:1040800001F09AFF8346BBF1000F03D0DBF802007A
:1040900038603F1D08F10108114800788045E7D3DA
:1040A00002A8381A019002A80199FFF753FC0120D9
:1040B00037E7002035E700BF228821460020FFF7C0
:1040C000F9FE01202DE70000E40700206207002030
:1040D000BC0700206800002021080020980700206D
:1040E00022080020204400200EB54FF0FF350026A6
:1040F0004FF0000905272021DD48FDF7E3FDDD49EC
:104100000860C821DC48FDF7DDFDDC49086020219E
:10411000DB48FDF7D7FDDB4908600523DA4A0021BB
:10412000DA48FEF71BF80623D94A0021D948FEF7E2
:1041300015F80723D84A0021D848FEF70FF801F0F8
:104140005FFA01A800F01AFCC0B202909DF80800C6
:1041500001280ED001208DF804008DF8050040F2F2
:10416000E730ADF80600BDF8060040F48040ADF839
:1041700006009DF80500CA49088008460088000628
:10418000000C08809DF8040009880843C449088091
:10419000BDF806000013C34908700846007818B13E
:1041A00008460078042802DD0420BE490870BD4896
:1041B00000780090BDF806309DF805209DF80410A9
:1041C000B94800F065FEBDF80600C0F30B00ADF87D
:1041D0000600BDF80600B349097840EA013080B214
:1041E000ADF8060001A800F04BFC9DF804309DF8E6
:1041F0000520AB480188ADA000F04AFE0021032055
:10420000FFF74EFB00210220FFF74AFB00210120AF
:10421000FFF746FBB44801F007FDA520B34908703D
:104220000020B349086000F00BFEB2A000F030FEA1
:104230009C480078012813DDB348FFF7DFF800BF82
:104240000020AB49086000220E210720FFF7FCF890
:104250000290002000F0DAFC9DF808000028EFD161
:104260002021AA48FDF72EFDA9490860A121A848F0
:104270000068FDF713FE0020A6490860F6E002A9D9
:10428000A3480068FDF7E8FC04462046A32C79D03B
:1042900004DC102807D0A12873D185E0A5285BD0C5
:1042A000A828F9D12CE091480078A3281ED1FCF76A
:1042B000A7F918B9002098490870D0E0974800780D
:1042C000FFF727F968B1761C062E06D30120914925
:1042D000086000209049087011E000208E490870A5
:1042E0000DE0002600208C49087008E07F48007827
:1042F000A52804D1A52186480068FDF7CFFDAEE0D2
:1043000000BF00207A49086000220E210720FFF735
:104310009BF80290002000F079FC9DF8080001282D
:10432000EFD100207E4908707E490860FBF72EFF20
:10433000824600207C4908705046FBF72BFF802105
:104340007A48FBF796FF7048FFF70EF9A5217048F1
:104350000068FDF7A3FD82E0A52064490870002DE8
:1043600004DB2846FCF75AFA4FF0FF356B4800781B
:10437000FFF7BDF8A12166480068FDF78FFD6EE0EC
:1043800000E057E0A32059490870002062490870F6
:104390000026002244F620616548FCF7A5F9054691
:1043A0002846FFF75DFB5AE0A1205049087000BF86
:1043B00005E000204E4908603220FEF77DF85248A3
:1043C000FFF71CF80028F4D180460EE00020484991
:1043D00008605248FFF785F807461FB13220FEF704
:1043E0006BF800E004E008F10108B8F10A0FEDDB1A
:1043F00000BF002FDCD1494801784EA000F048FDF5
:10440000FBF7C4FE82460020454908704348017806
:104410004648434A1278815441480078401C40493C
:1044200008705046FBF7B6FEA32139480068FDF737
:1044300035FD14E02D480078A3280FD1484609F136
:104440000109042805D902210846FFF729FA4FF08F
:10445000000900202649086000F07EF800BF00BF78
:104460000020234908600520FEF726F807E7000032
:1044700020430020900700200040002088070020F3
:10448000A043002094070020FC4E0020D1480008E3
:10449000FC5A002041480008FC5E00205D3E0008F8
:1044A000E407002062070020EC7800083D3D3D69EC
:1044B0006E69742045583D3D3131313131313D3DDA
:1044C0003D0A73797374656D49443A256420202050
:1044D00020686F73743A202564202020686F74650B
:1044E0006C3A2025640A0A00856F0008BC0700208A
:1044F000080800205761746368446F67496E6974E7
:10450000204F4B0A000000005D6F0008803F002034
:104510007C070020C0070020840700208C070020B3
:1045200022080020980700202108002020440020B5
:10453000954A00080909093E3E3E3E3E3E3E3E3E4B
:104540003E3E3E696E6974206C696E6B696420251D
:1045500064200A0A0000000010B50F480078D0B1AE
:104560000E480078802816DA0D490C4A127888180F
:10457000FEF7C4FF78B9FBF709FE04460748007848
:10458000401C0649087004480078401E0249087023
:104590002046FBF7FFFD10BD210800202208002067
:1045A0002044002010B500F00BF810BD10B50446F3
:1045B00024B1224601210520FEF746FF10BD000070
:1045C00010B502F0EDFF03490968441A024800687B
:1045D000204410BDB4070020B807002070B5044681
:1045E00001250448046002F0DBFF03490860284607
:1045F00070BD0000B8070020B40700202DE9F04F7F
:1046000085B005468846002D61D0B8F1000F5EDD0B
:104610002E46474634462088102858D32088B84272
:1046200055D1A07800F03F00012807D12046FFF7C0
:104630006FFC01284BD105B0BDE8F08FA07800F0E9
:104640003F00042839D1002001904FF0140A83461E
:10465000FCF714FD009094F80690484601F0ACFC7D
:104660008346BBF1000F27D00BF1020002900396A6
:10467000F8B28DF8100007208DF8110000BF02AAD3
:1046800003210220FEF7E0FE0190019858B900983E
:10469000032807D00098012802D1FCF7A3FF01E00E
:1046A000FCF7F6FE07E0002000F0B0FAAAF1010ADC
:1046B000BAF1000FE3DC00BF09E0FFF773FFE06031
:1046C00094F806903A463146484600F0BDFA00BFDD
:1046D000B1E7000070B5044602F062FF054651489C
:1046E000006800F5FA70A84206D200204E49087012
:1046F0004E4908604E4908804A4805604A4800789B
:1047000020B1012846D0022843D178E0474801680B
:104710000068401C454A10604648445410460068F2
:10472000022836D14448006800884149088008467C
:10473000008820F400404049096808803C4800880F
:1047400010F4004F06D03C4800680088401C3849EF
:10475000088004E0384800680088354908803448FB
:104760000088252804D234480068008815280BD218
:104770002F480088022803DC00202C49086008E04C
:1047800002202949087004E027480078401C264987
:10479000087044E0254801680068401C234A106006
:1047A000244844542248008811460968884225DC80
:1047B00022480068008810281BD3204800688078B1
:1047C00000F03F00012806D01C480068807800F007
:1047D0003F0004280DD119480068C078F22804D0A1
:1047E00016480068C078F32803D114480068FFF722
:1047F0008FFB00200C4908700C4908600FE00B4843
:104800000068401C09490860094800880968884216
:1048100004DC0020044908700449086000BF00BFA0
:1048200070BD00000C0800202008002010080020A7
:1048300014080020583F0020180800201C08002001
:1048400008B5002000903BE06A4600211D48006842
:10485000FDF78AFA04469DF8000088BB84B325461C
:1048600002210120FFF71CF8FFF7AAFEE9684EF6C7
:104870006022114488421DD8FFF7A2FEE860A879A3
:104880001149097888420FD110480078042811DCBA
:104890000E480078401E05F108010E5C2A8821466A
:1048A000304600F0D1F905E02A8821460648007814
:1048B00000F0CAF91CB1204602F07CF9002400BFC8
:1048C000C2E70000880700208C0700206207002054
:1048D00090B049E00FAA002124480068FDF744FA8F
:1048E000044602210120FEF7DBFF9DF83C00002872
:1048F0003AD1002C38D01E480068F0B1A67801AA41
:1049000002A93046FEF70BFE0546ADB90120194954
:1049100008609DF8042002A9304602F087F8FBF7F2
:1049200035FC07461248006812490968401A1049C8
:1049300008603846FBF72EFC00BF6368E278A17878
:104940000D48FEF7B6FB28B16168A078032200F09D
:104950005FF805E0FBF754FE10B1204600F036F892
:10496000204602F027F90024B4E700009407002055
:10497000980700209C0700209045002010B50446B1
:104980000CB9002010BD042200212046FCF77AF863
:104990002078FF2801D0207838B90A4800682060C4
:1049A000042221460020FCF77BF86088C0F30B004E
:1049B000608060880449097840EA01306080012005
:1049C000E0E70000C87800086207002030B587B033
:1049D00004460025CCB108208DF81000E068CDF821
:1049E0001100A068CDF8150001F0E2FA019004A8CA
:1049F000029009208DF80C0006208DF80D0001AA08
:104A000003210220FEF720FD0546284607B030BDF1
:104A10002DE9F04387B081460D461446012627460E
:104A2000484601F0C9FA8046B8F1000F24D00C20A6
:104A30008DF80400D8F80200CDF80500CDF8095033
:104A400001F0B6FA049001A8059009208DF818002D
:104A500006208DF8190000BF04AA03210220FEF7EA
:104A6000F3FC064606B906E014B1022000F05EFE33
:104A70007F1E002FF0D100BF304607B0BDE8F083A5
:104A800010B5044624B1224600210520FEF7DCFCC7
:104A900010BD000010B50748006850B10648007806
:104AA00038B9012004490870102102480068FDF758
:104AB000F5F910BD7C0700208407002010B50446DE
:104AC0000CB9002010BD042221460020FBF7E8FFAE
:104AD000002801DA0020F5E70120F3E72DE9F0478F
:104AE00007460C4615464FF00009F81F08287ED2ED
:104AF000DFE800F04A62040A7D6A2A6602F050FD8F
:104B00000F303D49086073E026683220B6FBF0F0B4
:104B1000C0EBC00006EB4000C0004FF47A71484380
:104B20003649B0FBF1F000F1C80840F2DC50804596
:104B300001D2404601E040F2DC50804602F030FDF8
:104B400040442D49086053E026683220B6FBF0F05F
:104B5000C0EBC00006EB4000C0004FF47A71484340
:104B60002649B0FBF1F000F1C80840F2DC50804566
:104B700001D2404601E040F2DC50804602F010FDD8
:104B800040441D49086033E0ACB1A5B1142002F0E7
:104B90008BF8064676B1142221463046FBF74EFBD1
:104BA000314617480068FDF779F91E2802D13046D2
:104BB00002F000F800BF1BE008201249086017E06F
:104BC00000200D49086013E03CB135B12046D0F813
:104BD00005100D4A116003E009E000200A49086051
:104BE0000020054908600C200649086000E000BF6D
:104BF00000BF4846BDE8F087F4070020E028010028
:104C000094070020E8070020EC07002070B5044658
:104C1000FCF79CFB00F00F00451C012C07D105EBB5
:104C200045016422514388B202F0C0FC0AE0022C24
:104C300004D105EB450002F0B9FC03E005EB4500AB
:104C400000F074FD70BD00002DE9F04F89B083467F
:104C50000D461646012008902C464FF00008002013
:104C600005908146029082460CB1102E03D202209C
:104C700009B0BDE8F08F584601F09EF907460FB91C
:104C80000220F5E7FBF782FA079000204D49086003
:104C90000798FBF77FFA88E002F082FC00F5FA60E3
:104CA000019000BF0021484801600198FBF7C4FC57
:104CB0000028F7D0E268E17833465846FEF730FB2B
:104CC00058B90AF1010ABAF10A0F00DB6EE04FF49D
:104CD00096700490A9F1010908E009F10109B9F100
:104CE0000F0F00DD62E04FF6FF70049000203649A0
:104CF000086000BF06A90498FEF7E2FA06980A28A1
:104D000006D1FCF763F90390039800F00FFD4CE027
:104D10004FF0000AFBF73AFA07902A480068082883
:104D20001ED10020274908600798FBF733FAB8F135
:104D3000050F00DB3AE0FCF739F9324629465846C0
:104D4000FEF756FC88BBE268E17833465846FEF72A
:104D5000E7FA50BB08F101084FF4FA700490C9E774
:104D6000184800680C281DD1002016490860174813
:104D7000006802900020154908600798FBF70AFABE
:104D8000002013490860B8F1000F03DDE1680298C4
:104D9000814204D00598411C05910A2805DB0020BA
:104DA000089003E00798FBF7F5F975E700BFFBF7FC
:104DB000EDF907900020034908600798FBF7EAF92E
:104DC000089855E7E807002008080020EC070020B5
:104DD000F407002010B501F041FF1C23024A002116
:104DE0000248FDF7BBF910BD7C680020E9400008CF
:104DF0002DE9F04180460F4615460024D7B1402DDD
:104E000018D2422001F050FF04469CB110202070BF
:104E100065702A463946A01CFBF710FA2146074860
:104E20000068FDF73BF806461E2E03D1204601F030
:104E3000C1FE00240020BDE8F08100007C070020B6
:104E400010B545F25550FCF7ABF80420FCF79CF880
:104E500040F6FF70FCF79EF8FCF78EF800224FF446
:104E6000FA710948FBF740FC0849086008460068E9
:104E7000002801DA00BFFEE704480068FEF7F0FDF5
:104E8000FCF772F810BD0000C57500082808002066
:104E90000FB4054B10B503A9044A029800F018F8A6
:104EA00010BC5DF814FB0000B15500089408002008
:104EB00002E008C8121F08C1002AFAD170477047E3
:104EC000002001E001C1121F002AFBD17047000041
:104ED0002DE9FF4F8DB005460F460026E9E1252854
:104EE00079D100246D1CF74AA246A14601212B78F6
:104EF000203B01FA03F0104202D004436D1CF6E798
:104F000028782A2810D06FF02F022878A0F13001DD
:104F1000092915D80AEB8A0102EB410144F0020489
:104F200000EB010A6D1CF0E757F804ABBAF1000F73
:104F300003DA44F40054CAF1000A44F002046D1C80
:104F400028782E2817D115F8010F44F004042A28D8
:104F50000ED06FF02F022878A0F1300109290AD86D
:104F600009EB890102EB410100EB01096D1CF2E73D
:104F700057F8049B6D1C28786C280FD006DC4C2851
:104F800017D068280DD06A2814D104E0742810D0F6
:104F90007A280FD10DE044F400140AE044F48014A0
:104FA00001E044F440146978814202D16D1C04F59B
:104FB00080146D1C95F800C0BCF16E0F2AD012DC75
:104FC000BCF1630F3CD007DCBCF1000F76D0BCF124
:104FD000580F19D1A7E018E0BCF1640F6FD0BCF1F5
:104FE000690F11D16BE0BCF1730F32D006DCBCF15C
:104FF0006F0F71D0BCF1700F06D196E0BCF1750F48
:105000006BD0BCF1780F69D06046DDE90F12904794
:10501000761C4DE1C4F30250022806D003280AD0C2
:10502000042801CF0AD0066042E101CF4FEAE671C1
:10503000C0E900613CE101CF068039E1067037E14B
:1050400001CF8DF8000000208DF80100EB46012013
:1050500003E057F804BB4FF0FF3061074FF0000149
:1050600002D40DE008F10101884649450FDA804578
:10507000F8DB1BF808100029F4D108E008F1010161
:1050800088468142FADB1BF808100029F6D1DDE9D9
:105090000F23AAEB08008146214600F03CF930447A
:1050A00000EB080604E0DDE90F121BF8010B904746
:1050B000B8F10108F7D221464846F4E0FDE00A21A4
:1050C000C4F302524FF0000B0891022A07D001CF1F
:1050D000C117032A09D00AE030E022E023E0FF1DD7
:1050E00027F00707F7E8020105E000B2C117042A1C
:1050F00001D140B2C117002906DA0023D0EB03002A
:1051000063EB01012D2202E0220504D52B228DF84C
:105110002420012203E0E20701D02022F7E7904695
:105120004EE00A210BE0102109E010214FF0000BA6
:1051300044F004044FF00809089103E008214FF0FF
:10514000000B0891C4F30252022A04D001CF0021BF
:10515000032A06D007E0FF1D27F00707F7E8020142
:1051600005E080B20021042A01D1C0B200214FF035
:105170000008220724D5BCF1700F29D0089B83F0CA
:10518000100353EA0B0309D150EA010206D0302282
:105190008DF824208DF825C002229046089B83F0CC
:1051A000080353EA0B030BD150EA010201D1620755
:1051B00006D530228DF824204FF00108A9F101090D
:1051C000BCF1580F09D040A20B9208AA0A9211E034
:1051D00040228DF824200122DFE740A2F4E75B465D
:1051E000089AFBF75FF80B9B9B5C0A9AA2F10102FD
:1051F0000A92137050EA0102F1D10A98ADEB000057
:1052000000F1200B600702D524F4803401E04FF058
:105210000109D94502DDA9EB0B0000E0002000EBFD
:105220000B0141440890AAEB01000B90E00306D467
:10523000DDE90F2321460B9800F06DF806444FF08E
:1052400000090DF1240A07E0DDE90F121AF8090040
:105250009047761C09F10109C145F5DBE0030CD547
:10526000DDE90F2321460B9800F055F8064404E0D1
:10527000DDE90F1230209047761C0899481E0890EF
:105280000029F5DC08E00A980A990078491C0A917F
:10529000DDE90F129047761CBBF10001ABF1010B69
:1052A000F1DC0B982146DDE90F2300F021F80644DC
:1052B0006D1C287800287FF412AE11B03046BDE88E
:1052C000F08F000009280100303132333435363791
:1052D0003839616263646566000000003031323342
:1052E00034353637383941424344454600000000E2
:1052F0002DE9F0410446002517461E46880405D4D2
:1053000006E039462020B04705F10105641EF8D5B6
:105310002846BDE8F0812DE9F0410446002590467D
:105320001E46C80301D5302700E02027880405D594
:1053300006E041463846B04705F10105641EF8D540
:105340002846BDE8F08100001FB502208DF80C0052
:105350000C4800788DF80D000B4800788DF80E0091
:1053600000F026FE009003A8019003208DF80800AD
:1053700006208DF809006A4603210220FEF764F832
:1053800004B010BD78070020620700201FB503207D
:105390008DF80C000C4800788DF80D000B48007853
:1053A0008DF80E0000F004FE009003A80190032089
:1053B0008DF8080006208DF809006A4603210220B6
:1053C000FEF742F804B010BD780700206207002005
:1053D00030B502460B46002014E001130405200CF2
:1053E000147881EA24140A4D35F814406040011302
:1053F0000405200C147804F00F044C4035F81440D8
:105400006040521C1C1EA3F10103E6DC30BD00000D
:10541000CC7800080020FF2000E0401E0028FCD1CE
:10542000704700002DE9F8430446657B4FF00608FD
:1054300000F00AFE81460422494604F10900FAF709
:1054400024FF18B900202070BDE8F883A17B01F08B
:105450003000202809D194F8421049B2384A11701E
:1054600094F8431049B2374A1170A5B1454512DC92
:10547000681E354A52F82010201D88470646012E26
:1054800001D1207006E0022E02D10020207001E040
:1054900000202070D8E7A22D08D0072D06D0202D9F
:1054A00001DBA02D02DD00202070CDE70422611D6C
:1054B00026480068FAF7E9FE08B9012000E000205C
:1054C000074617B922A0FFF7E3FCC7B16946201DC4
:1054D00000F04AFE68B10120207021480068F8B150
:1054E0009DF800001E4909688847C8B10020207057
:1054F000AAE71CA0FFF7CCFC002020701EE0601D76
:1055000000F09AFE80B1201D00F0D6F848B900BF27
:10551000A07B20F00701491CA17300BF032020706D
:105520000CE00020207009E0A07B00F03000202873
:1055300002D10020207001E00020207000BF83E72E
:105540006800002069000020907700083C070020D8
:105550006E6F7420666F72206D65210A0000000076
:1055600044070020696E76616C696420636F6E6E1B
:10557000656374696F6E210A00000000F0B5034690
:105580000C46154623F0010621460BE096F9002053
:1055900091F90000904203D091F90000801AF0BD0B
:1055A000761C491C2800A5F10105EFD100BFF6E7E4
:1055B00070B504460D460A2C0AD10D210B48FEF7A2
:1055C00047FC00BF40210948FEF7C0FB0028F9D086
:1055D000E1B20648FEF73CFC00BF40210348FEF75D
:1055E000B5FB0028F9D0204670BD00000044004003
:1055F0000148024908607047EFBEADDE6407002035
:1056000010B54FF49640114908604FF480508880DF
:105610000020C8804FF480600881002088810C2021
:1056200048810020FEF7A6F8012240F225510848E3
:10563000FEF799FB2520054908700F2048708870F7
:105640000120C8700846FCF7F3F910BD781200205D
:105650000038014010B54FF4E130064908600020E1
:105660008880C880088188810C2048810120FEF74D
:1056700081F810BD7812002038B505460D4C002089
:105680006872E872022028702078A8722078401C86
:10569000207002E02078401C207020780028F9D08B
:1056A0002078FF28F6D02078694600F06FF80028AF
:1056B000F0D138BD880000202DE9F041054628785A
:1056C0000838C7B2012000F0FBFC0446002629E0A0
:1056D0002078032823D120790838B8421FD104222A
:1056E000691C601DFAF7D1FDC8B90422691D04F1D7
:1056F0000900FAF7CAFD90B9012205F1090104F188
:105700000D00FAF7C2FD50B9BA1E05F10B0104F104
:105710000F00FAF7BAFD10B90120BDE8F081701C46
:1057200086B24434802ED3DB0020F6E708498A8C09
:1057300000BF00BF8B8C9B1A9BB2B3F57A7FF9DB5D
:1057400002F57A739AB2401E0028F2D17047000029
:105750000004004008B5FCF7EDF90223064A0021D9
:105760000648FCF7FBFC6A4605A10220FCF7AEFDEB
:10577000FCF7A8FC002008BD140A00206104000802
:105780005374617274205461736B000010B503464A
:105790000C46094A00210BE01078022805D1907AC6
:1057A000984202D12170012010BD481CC1B20D32B7
:1057B0008129F1DB0020F7E78900002070B504465D
:1057C000FAF7E4FC054601200D490860091D086050
:1057D00000BF0C48006810F0400FFAD12046FDF7DA
:1057E000B3FF952000F03CF80020FDF7ADFF064622
:1057F0000120034908602846FAF7CCFC304670BD0A
:10580000100C01400808014010B501200249086051
:10581000FDF724FF10BD0000100C014010B5044638
:1058200044F0C000DB2101F089FE10BD70B50446D4
:105830000D462A462146FF2001F040FE70BD70B59E
:1058400004460D462946204601F078FE70BD70B52D
:1058500004460D462A4621467F2001F02FFE70BDEA
:1058600000E0401E0028FCD170470000F0B589B070
:1058700004460026002C42D004F10D0500F0E4FBA4
:105880000746042239462846FAF7FFFC50BB1D485C
:10589000406828B11B4800221146436808209847F9
:1058A0000D208DF8140000F0CFFB0068CDF8150036
:1058B000D4F80500CDF81900D4F81100CDF81D007A
:1058C00000F076FB029005A803900D208DF81000E3
:1058D00006208DF8110002AA03210220FDF7B4FD75
:1058E00006460CE00748406848B1D4F81100019022
:1058F0000448042201A943680A20984700BF3046A3
:1059000009B0F0BDC077000838B5044600256CB179
:105910000748406850B1D4F81500009004480422AC
:10592000694643680D209847C5B200BF284638BD78
:10593000C07700082DE9F04104460027BCB104F10E
:105940000D0600F081FB8046042241463046FAF7FE
:105950009CFC08B90C2500E00E250648406830B1D3
:105960000448092204F10C01436828469847384648
:10597000BDE8F081C077000810B54FF40851044825
:10598000FAF777FC4FF408610248FAF772FC10BD91
:105990004C1400204C3600202DE9F04706460F46F7
:1059A000012E03D10E4C4FF0800801E0BDE8F087D6
:1059B000FAF7ECFB814600250AE0207828B16088E0
:1059C000B84202DD6088401E6080681C85B24434A5
:1059D0004545F2DB4846FAF7DDFB00BFE6E700008D
:1059E0004C1400202DE9F74F88B00D464FF0000B06
:1059F000D94600200390029001900898012805D113
:105A0000484C802006908120079003E000200BB0D6
:105A1000BDE8F08F287801280ED1287900F0CCFA63
:105A20008146B9F1000F01D10020F0E799F8086034
:105A300009F10200029011E0287808B92E790DE0F2
:105A40002878022808D16868867B6868401D029023
:105A500068680F30019001E00020D8E70A9801281B
:105A600000D100E0032007464FF0000A55E0FAF7A6
:105A70008DFB04902078B84246D104202070049811
:105A8000FAF788FB94F80D80B04502D0B8F1070F03
:105A900038D12878012809D1A22E03D109F10200BA
:105AA000039008E004F10900039004E0287802283C
:105AB00001D1601D03900422DDE90210FAF7E5FB35
:105AC000C0B20590287860B1019808B9059840B136
:105AD0000198A8B1042204F109010198FAF7D5FB55
