:020000040800F2
:10000000D0FB00205F010008CD1C0008CF110008C4
:10001000AD1A00089D060008C54B0008000000004E
:100020000000000000000000000000000144000883
:100030008509000800000000D701000805460008F7
:100040007F0100087F0100087F0100087F01000890
:100050007F0100087F01000889090008F5090008F0
:100060007F0100087F0100087F0100087F01000870
:100070007F0100087F0100087F0100087F01000860
:100080007F0100087F0100087F0100087F01000850
:100090007F0100087F0100087F0100087F01000840
:1000A0007F0100087F0100087F0100087F01000830
:1000B0007F010008394900087F0100087F0100081E
:1000C0007F0100087F0100087F0100087F01000810
:1000D0007F0100087F0100087F0100087F01000800
:1000E0007F0100087F0100087F0100087F010008F0
:1000F0007F0100087F0100087F0100087F010008E0
:100100007F0100087F0100087F0100087F010008CF
:100110007F0100087F0100087F0100087F010008BF
:100120007F0100087F0100087F0100087F010008AF
:10013000DFF80CD000F0FAF8004800479997000863
:10014000D0FB00204FF0010080F3138801480249E2
:100150000160FEE70CED00E00400FA057047084876
:100160008047084981F3088807480047FEE7FEE713
:10017000FEE7FEE7FEE7FEE7FEE7FEE7FEE7FEE757
:100180005D010008D0FB002031010008EFF3108072
:1001900072B6704780F31088704726484FF0FF0111
:1001A0000170002080F309881F4801210170224856
:1001B0004FF08051016062B6FEE703B41E484FF075
:1001C0008051016003BC704703B41B484FF080515D
:1001D000016003BC7047EFF3098028B1203880E844
:1001E000F00F12490968086000B50A4880475DF8B9
:1001F00004EB0B480B490A7802700C480C490A685A
:100200000260106890E8F00F203080F309884EF00B
:10021000040E7047932F0008191E00087D08002067
:100220007F08002080080020860800208C0800201D
:100230009408002022ED00E004ED00E00649074AA2
:100240000868504343F23902104408604008704780
:100250000149086070470000000A00206D4EC64149
:1002600010B540EA01040346A40703D009E010C911
:10027000121F10C3042AFAD203E011F8014B03F84D
:10028000014B521EF9D210BDD2B201E000F8012B91
:10029000491EFBD270470022F6E710B50446084617
:1002A000114602462046FFF7EFFF204610BD30B54D
:1002B00004460020034600E05B1C934203D2E05C4E
:1002C000CD5C401BF8D030BD2DE9F05F0546002025
:1002D00092469B4688460646814640241BE02846B7
:1002E00041464746224600F042F852465B46801A95
:1002F000994110D310461946224600F029F82D1ACC
:1003000067EB01084F4622460120002100F020F84B
:1003100017EB00094E41201EA4F10104DFDC484622
:1003200031462A464346BDE8F09F0000064C074D83
:1003300006E0E06840F0010394E8070098471034B5
:10034000AC42F6D3FFF7F8FE10FF000830FF0008BC
:10035000202A04DB203A00FA02F100207047914085
:10036000C2F1200320FA03F3194390407047202A7A
:1003700004DB203A21FA02F00021704721FA02F34F
:10038000D040C2F12002914008431946704770B531
:1003900001EB020410F8015B15F0070301D110F81E
:1003A000013B2A1106D110F8012B03E010F8016B74
:1003B00001F8016B5B1EF9D12B0705D40023521EF7
:1003C0000FD401F8013BFAE710F8013B02F10202F9
:1003D000A1EB030303E013F8015B01F8015B521E7C
:1003E000F9D5A142D6D3002070BD00002DE9F04719
:1003F00005460E46174698464FF00209FFF7C6FE1F
:1004000082466C68DCB12068686026736773C4F844
:1004100004800EF03DFFA06000202060E86810B965
:10042000EC60AC6002E0E8680460EC6028681028CA
:1004300002D22868401C28604FF0000912E0AC6826
:100440006CB12068A86026736773C4F804800EF04E
:100450001FFFA06000202060E8680460EC6004A03A
:1004600005F0D4F95046FFF795FE4846BDE8F08701
:100470005472616E73616374696F6E2046756C6C43
:100480000A00000004F0D2F800F00AF900F010FAB7
:1004900007F04AFF002003F039FF012003F036FF88
:1004A000022003F033FF032003F030FF002003F0AD
:1004B00065FF012003F062FF022003F05FFF0320CD
:1004C00003F05CFF642002F065FD002003F042FFB2
:1004D000012003F03FFF022003F03CFF032003F064
:1004E00039FF02F04BFB124C12A005F08FF914A05B
:1004F00005F08CF9002505E014F8011B12A005F0A9
:1005000085F96D1C0B2DF7DB217811A005F07EF924
:1005100008F0EAFE05F044F90FA005F077F905E0D0
:10052000002003F05BFF142002F034FDF8E7000028
:10053000E8F7FF1F2A2A2A2A2A2A2A2A2A2A0A0010
:1005400043505549443A0A00253032582D000000E6
:10055000253032580A000000574552535F696E69D2
:1005600074204F4B0A0000001FB50121080203F060
:10057000B5FB4FF44040ADF80C0010208DF80F0093
:1005800003208DF80E0003A9224800F097FD2248B1
:1005900003F096FC0121052003F0A0FB1120ADF82B
:1005A0000C0004208DF80F0003A91C4800F086FD04
:1005B0000021084600F062FD0120019000208DF826
:1005C00008000C208DF8090001208DF80A0001A810
:1005D00000F05EFA06208DF800000F208DF8010073
:1005E0008DF8020001208DF80300684601F070FBD1
:1005F00006200F21002807DA0A07140E084A00F027
:100600000F031B1FD45403E00A07130E054A1354AB
:1006100000BF1FBD00200140291300080008014051
:1006200018ED00E000E400E010B5FFF7AFFD044670
:100630000EF02EFE08490968884207D900200649B5
:1006400008602046FFF7A6FD012010BD2046FFF7F9
:10065000A1FD0020F9E700001008002070B5044655
:100660000EF016FE0546FFF791FD06460A480068A3
:10067000854201D8A54207D90020074908603046C5
:10068000FFF788FD012070BD3046FFF783FD032092
:1006900009F06EF80020F6E71008002000BFFEE722
:1006A00008B501214FF4DA7003F018FB4FF48070A5
:1006B000ADF8000004208DF8030003208DF802003F
:1006C0006946024800F0FAFC08BD00000020014025
:1006D00010B504460C48006828B90EF0D9FD204436
:1006E000094908600DE00EF0D3FD0749096888420A
:1006F00004D9002004490860012010BD052009F03C
:1007000037F80020F9E70000C007002070B5044664
:100710000D4601222946204600F006F806463046DE
:1007200003F05CFF304670BD30B504460B46002137
:1007300021E0134800EB01100078D8B9104800EB15
:10074000011043600E4800EB011083600C4800EB81
:100750000110C4600A4D05EB01156A800020084DA8
:1007600005EB011568700120054D05EB011528709A
:10077000084630BD491C0429DBD34FF0FF30F8E7B1
:10078000A80B002008B50121080203F087FA012117
:1007900040F2E11003F0A2FA4CF23370ADF8000021
:1007A00003208DF8020018208DF8030069460D48DB
:1007B00000F084FC4FF6F870ADF8000069460A4876
:1007C00000F07CFC0420ADF800006946074800F00A
:1007D00075FC4FF48050ADF800006946044800F005
:1007E0006DFC08BD0014014000180140001C0140D0
:1007F0000020014000B595B0002000900190042039
:100800000290002003900490059006900620079027
:1008100000200890099010200A9000200B900C9066
:100820000D900E904FF480500F900020109011907A
:100830001290CDF84CD0CDF850D007A800F0BEF9FA
:100840000121062000F0A0F915B000BD1FB501215F
:10085000052003F043FA0220ADF80C0004208DF8C7
:100860000F0003A9114800F029FC0121002000F02D
:1008700005FC0220019000208DF808000C208DF866
:10088000090001208DF80A0001A800F001F90720F5
:100890008DF8000000208DF801008DF80200012085
:1008A0008DF80300684601F013FA1FBD00080140EF
:1008B00030B589B0002409E000202E4901EB041175
:1008C00008702C4901EB0411C860641C042CF3D39C
:1008D0000121022003F0F2F91D208DF80400072009
:1008E0008DF805008DF8060001208DF8070001A89D
:1008F00001F0EEF91D200721002807DA0A07150E7E
:100900001D4A00F00F031B1FD55403E00A07130E06
:100910001A4A135400BF4FF6FF70ADF81C00482070
:10092000ADF818000020ADF81E00ADF81A008DF8E3
:10093000200006A9124804F0B9F80020ADF808001C
:100940000120ADF80A004FF47A70ADF80E000020D7
:10095000ADF8100002A90A4804F06CF8012108481B
:1009600004F050F801220221054804F057F809B0BC
:1009700030BD0000A80B002018ED00E000E400E00E
:10098000000400407047000010B5FFF7FFFB04466D
:1009900015480078401C144908702046FFF7FAFB00
:1009A000062001218140114A430942F8231000BF6B
:1009B000012000F059F840B10D48006810B10C4812
:1009C00000688047012000F049F80620012181409D
:1009D00042094FF0E02303EB8202C2F8001100BF8E
:1009E00001F01AFA10BD00007D08002080E100E04F
:1009F000B800002010B5FFF7C9FB04461448007882
:100A0000401C134908702046FFF7C4FB0720012152
:100A10008140104A430942F8231000BF04E002203D
:100A20000D49086006F092F80B48006810F0020FBC
:100A3000F5D107200121814042094FF0E02303EB6B
:100A40008202C2F8001100BF01F0E6F910BD0000FB
:100A50007D08002080E100E01404014001490860A5
:100A60007047000014040140014600200022074B9B
:100A70001B6803EA0102054B14331B680B4202D0CA
:100A80000AB1012000E0002070470000000401408E
:100A9000002123498279002A3AD00A461268036865
:100AA0009A430B461A600A1D126803689A430B1D8D
:100AB0001A60027911440A6803681A430A60184AE6
:100AC0000832126803689A43154B08331A601A1DDE
:100AD000126803689A43124B0C331A604279102A49
:100AE0000ED11A1F126803681A430D4B08331A609F
:100AF0001A1D126803681A43094B0C331A600DE083
:100B00000749427911440A6803681A430A6005E0FC
:100B1000027911440A6803689A430A60704700002A
:100B20000004014004200C49C96801F001010129B9
:100B300001D101200EE00849C96811F0040F01D06D
:100B4000022007E00449C96811F0100F01D003200A
:100B500000E00420704700000020024070B5044609
:100B60000425FFF7DFFF054605E005F0E0F9FFF794
:100B7000D9FF0546641E012D01D1002CF5D104B921
:100B80000525284670BD000051B14FF0204252F8B3
:100B9000202042F001024FF0204343F8202009E0DA
:100BA0004FF0204252F82020034B1A404FF02043D0
:100BB00043F8202070470000FEFF0F00D0E901122B
:100BC0001143C268114302691143426911438269AA
:100BD0001143C2691143026A1143426A1143826A96
:100BE0001143C26A11434FF02043026843F82210B8
:100BF0008168082908D11A46016852F8211041F08D
:100C00004001026843F82210016B0968026B5268C8
:100C100041EA0211026B926841EA0221026BD2683A
:100C200041EA0241026B126941EA0251026B5269C8
:100C300041EA0261026B926911430268521C4FF053
:100C4000204343F82210816AB1F5804F1AD1416BDD
:100C50000968426B526841EA0211426B926841EAAC
:100C60000221426B126941EA0251426B526941EA28
:100C70000261426B92691143026803EB8202C2F87F
:100C8000041108E06FF070414FF02043026803EB5D
:100C90008202C2F80411704770B504460420FFF7C1
:100CA0005DFF05466FF30A04042D1BD10F48006950
:100CB00040F002000D49086108464461006940F0B7
:100CC0004000086140F6FF70FFF748FF0546052D1C
:100CD00008D00648006941F6FD71084003490861E3
:100CE000002070BD4FF0FF30FBE700000020024005
:100CF00070B505460C46164603482118324628466C
:100D0000FFF7AEFA70BD0000000004082DE9F74FB0
:100D100082B082469146039FB048B1494860B148CD
:100D200048603520C860CAF30A00C0F5006BAE48C1
:100D300050440190AC4850446FF30A000090D945EC
:100D400003D84E464FF0000902E05E46A9EB0609C3
:100D500032463946019807F083F8002821D0002553
:100D600005E00198405DFF2800D002E06D1CB5420F
:100D7000F7D300BFB54215D24FF400629B480099EB
:100D8000FFF76EFACAF30A01984A881832460399A7
:100D9000FFF766FA0098FFF77FFF009800F028F948
:100DA000374473E08E48006940F001008C490861C7
:100DB0008D48504420F001041AF0010F19D04FF073
:100DC000000809E0404608F10108052804D94FF061
:100DD000FF3005B0BDE8F08F0F20FFF7BFFE0428FD
:100DE000F0D13988208861F31F202080A41C761E52
:100DF0007F1C4FEA560B002514E04FF0000807E077
:100E0000404608F10108052802D94FF0FF30E0E71D
:100E10000F20FFF7A3FE0428F2D1388820806D1C34
:100E2000A41CBF1C5D45E8D316F0010F17D04FF08E
:100E3000000807E0404608F10108052802D94FF0F4
:100E4000FF30C6E70F20FFF789FE0428F2D1208883
:100E500000F47F403988C9B2084320807F1C4FF0DE
:100E6000000807E0404608F10108052802D94FF0C4
:100E7000FF30AEE70F20FFF771FE0428F2D158488B
:100E8000006941F6FE710840554908619AE0B9F5DC
:100E9000006F04D34FF40066A9F5006902E04E46E6
:100EA0004FF00009009800F500600090009C324669
:100EB0003946204606F0D4FF00287DD04FEA560878
:100EC000002507E034F81500A0F57F41FF3900D078
:100ED00002E06D1C4545F5D300BF454507D116F02E
:100EE000010F04D034F81500002000B10025EDB347
:100EF0003B48006940F0010039490861C3460025BC
:100F000014E04FF0000807E0404608F1010805280A
:100F100002D94FF0FF305CE70F20FFF71FFE0428D7
:100F2000F2D1388820806D1CA41CBF1C5D45E8D31D
:100F300016F0010F17D04FF0000807E0404608F107
:100F40000108052802D94FF0FF3042E70F20FFF7D4
:100F500005FE0428F2D1208800F47F403988C9B208
:100F6000084320807F1C4FF0000808E014E0404652
:100F700008F10108052802D94FF0FF3029E70F20BA
:100F8000FFF7ECFD0428F2D11548006941F6FE7127
:100F900008401349086115E04FF4006213480099B6
:100FA000FFF75EF9324639461048FFF759F90098C5
:100FB000FFF772FE009800E003E000F019F83744F4
:100FC00000E03744B9F1000F7FF461AF04480069D5
:100FD00040F08000024908610020FAE623016745DD
:100FE00000200240AB89EFCD00000408E80B002090
:100FF0002DE9F04104461F4D1F48006940F00100F3
:101000001D4908616FF30A042646002715E04FF0DA
:10101000000808E0404608F10108052803D94FF010
:10102000FF30BDE8F0810F20FFF798FD0428F1D1D3
:10103000288830807F1CB61CAD1CB7F5806FE6D3C6
:101040004FF0000807E0404608F10108052802D9E2
:101050004FF0FF30E5E70F20FFF780FD0428F2D1C5
:101060000548006941F6FE71084003490861002007
:10107000D7E70000E80B00200020024030B5002236
:101080008B071C0F0F2303FA04F20B4B8C1053F841
:1010900024309343084C8D1044F8253023468C109F
:1010A00053F824308C07240F00FA04F42343024C35
:1010B0008D1044F8253030BD080001402DE9F04185
:1010C000024600250026002000230024002791F876
:1010D00003C00CF00F0591F803C01CF0100F03D0F3
:1010E00091F802C04CEA0505B1F800C01CF0FF0FF2
:1010F00031D0146800202BE04FF0010C0CFA00F303
:10110000B1F800C00CEA03069E4220D183004FF0E4
:101110000F0C0CFA03F7BC4305FA03FC4CEA040479
:1011200091F803C0BCF1280F06D14FF0010C0CFA66
:1011300000FCC2F814C00AE091F803C0BCF1480FEB
:1011400005D14FF0010C0CFA00FCC2F810C0401C95
:101150000828D1D31460B1F800C0BCF1FF0F34DD12
:10116000546800202EE000F1080C4FF0010808FA46
:101170000CF3B1F800C00CEA03069E4221D18300B3
:101180004FF00F0C0CFA03F7BC4305FA03FC4CEAD2
:10119000040491F803C0BCF1280F05D100F1080C3C
:1011A00008FA0CF8C2F8148091F803C0BCF1480F9B
:1011B00007D100F1080C4FF0010808FA0CF8C2F84A
:1011C0001080401C0828CED35460BDE8F08100BFD9
:1011D000FEE700004CF6CC40014908607047000073
:1011E000003000404AF6AA2001490860704700001C
:1011F0000030004001494860704700000030004066
:1012000001498860704700000030004001490860D3
:10121000704700000030004070B50646F0213046AF
:10122000FFF739F806F11005756000240AE0601C2C
:10123000C0EBC00005EB4000C4EBC40105EB41016D
:101240000860641C0F2CF2DB0020C4EBC40105EB2A
:101250004101086070BD000006480068062801D3FF
:10126000022002E003480068801F02490860084627
:1012700000687047C407002008480068410007481C
:101280000068A1EB5001642901D9642000E0084600
:10129000024A10601046006870470000C407002032
:1012A00008B5014659B108880090BDF80000054A0C
:1012B0001288904201D0002008BD0120FCE70020E8
:1012C000FAE700000008002010B500BF09480078C8
:1012D00009490978884207D100BFE422074908A0DC
:1012E00004F094FA00BFFEE700BF01200A4908702D
:1012F00010BD0000B200002066FB0008CFFB000814
:10130000415353455254206572726F7221212D2D25
:1013100025733A25640A0000B100002001480078D6
:1013200070470000B000002010B500200849086098
:101330000848006810F0010F05D000F021FC0120E2
:101340000449143108600221032003F023F810BD82
:101350009C0000200004014070B5FEF717FF054611
:1013600000207F49086040217E48FEF794FF08F086
:10137000BFFC00BF7C48006810F0010F08D100BF1F
:101380004FF4C37279497AA004F040FA00BFFEE737
:1013900000BF012074490C3108600A2000F0A0FB56
:1013A0000120714908310860282000F099FB0120D4
:1013B0006D490C31086000BF7348006810F0400FA1
:1013C000FAD1302002F03AFF00BF6F48006810F0F9
:1013D000400FFAD10120644908310860312008F03B
:1013E00091FC0446214669A004F010FA062008F09A
:1013F00089FC044621466AA004F008FAA5210620CB
:1014000008F091FC062008F07DFC0446214669A006
:1014100004F0FCF900BF062008F074FCA52808D0F1
:1014200000BF4FF4D572514951A004F0EFF900BF4D
:10143000FEE700BF00BF302008F064FC40B100BFF1
:1014400040F2AD1249494AA004F0E0F900BFFEE7BE
:1014500000BF00BF312008F055FC032808DA00BFA8
:101460004FF4D772414942A004F0D0F900BFFEE723
:1014700000BF00240AE0544A02EB44025178524A69
:1014800012F8140008F04FFC601CC4B21F2CF2D3F9
:1014900002204E490870002000F09EF9342008F028
:1014A00001FC4FF47A7400BF382008F02BFC10F0D8
:1014B000500F00D007E0402000F012FBA4F14000E4
:1014C00004B2002CF0DC00BF00240AE0404806789B
:1014D000342008F017FC66F35F003D490870601C7B
:1014E000C4B2102CF2DB3A48007840F08000384952
:1014F000087000F015FB40F283131122354C1441A3
:1015000004FB03F13448B0FBF1F4641D0A26B4FB7C
:10151000F6F43234314E348034462488641104EBBE
:101520004406C6EBC414FA2606EBC4042C4E3480E1
:101530003E210C48FEF7AFFE0A480021C187062174
:10154000022008F0F0FB012026490860C00326496C
:101550000861401048612846FEF71CFE70BD00007F
:101560009C000020F8130020080C01406EFB0008CE
:10157000415353455254206572726F7221212D2DB3
:1015800025733A25640A0000080801402056455298
:1015900053494F4E2076616C75653A2025780A00D4
:1015A0003020504B544C454E2076616C75653A2086
:1015B00025780A003120504B544C454E2076616C02
:1015C00075653A2025780A0028FB0008B000002045
:1015D000B600002080BA8C010073550098000020EE
:1015E0009A000020140401400020014004480078C3
:1015F0006D2148434330024908700846007870471F
:10160000B600002010B50446402202492046FEF7ED
:1016100027FE10BDF813002070B500BF14480078F5
:10162000032808D000BF40F22952124912A004F04A
:10163000EDF800BFFEE700BF4FF47A7400BF38201A
:1016400008F060FB10F0500F00D007E0402000F0E1
:1016500047FAA4F1400004B2002CF0DC00BF3420B3
:1016600008F050FB0546284600F022FA70BD000045
:10167000B0000020AEFB0008415353455254206592
:1016800072726F7221212D2D25733A25640A000094
:1016900030B505461048007808B9002030BD002359
:1016A000002400210EE06A5C0C48405C904201D1AD
:1016B000581CC3B20A48405C904201D1601CC4B2BD
:1016C000481CC1B20429EEDB042C01D0042B01D14B
:1016D0000020E3E70120E1E7B1000020B200002094
:1016E00066FB000810B5012008F0ECFF040006D0EE
:1016F000201DFFF787FF204605F07CF902E002A0DD
:1017000004F084F810BD00000A0A6E6F20726F6F3B
:101710006D20666F722072656365696365206E6512
:1017200077207061636B61676521210A000000000A
:1017300010B500BF0B480078012808D100BF4FF456
:101740009362094909A004F061F800BFFEE700BFF9
:1017500004480078032804D100F0E2F9022001498E
:10176000087010BDB0000020A2FB00084153534593
:101770005254206572726F7221212D2D25733A25E6
:10178000640A000010B500BF0B480078012808D19A
:1017900000BF4FF48C62094909A004F037F800BF7C
:1017A000FEE700BF04480078032804D00320024964
:1017B000087000F0CFF910BDB000002098FB0008C1
:1017C000415353455254206572726F7221212D2D61
:1017D00025733A25640A000010B5044600BF042CA6
:1017E00007DB00BF9B220A490AA004F00FF800BFE4
:1017F000FEE700BF00F094F90C48015D0A2008F0F4
:1018000092FA0B480078032801D100F0A3F910BD2B
:10181000B8FB0008415353455254206572726F72F1
:1018200021212D2D25733A25640A00006AFB00084A
:10183000B000002010B5044620780A490978884293
:1018400001D1012010BD062107A003F0DFFF002019
:1018500004E0215C0A4A1154411CC8B20428F8DB98
:101860000020EFE766FB00080A096861726477618F
:10187000726520616464723A20253032780A000073
:10188000B200002010B5FEF781FC0446074800783E
:10189000012807D0FFF74CFF392008F003FA012098
:1018A000024908702046FEF775FC10BDB00000200C
:1018B0002DE9F05F07460D464FF0000A00BF55487E
:1018C0000078012808D100BF40F25322524953A0AA
:1018D00003F09CFF00BFFEE700BFFEF757FC834606
:1018E0004FF40040534948614010086100F018F976
:1018F0003878401C00F0FF084146384608F01BFAD3
:1019000065B9352008F0CEF900BF4B48006810F0EB
:10191000010FFAD001204849086062E000BF012DA4
:1019200008D000BF40F27E223B493CA003F06EFF8E
:1019300000BFFEE700BF04261B21022008F0F3F9D8
:1019400000BF342008F0AEF94FF47A7900BF382098
:1019500008F0D8F910F0500F00D009E0402000F056
:10196000BFF8A9F140000FFA80F9B9F1000FEEDCE1
:1019700000BF012030490860352008F093F9192094
:1019800000F0AEF82C48006810F0010F12D00120D2
:1019900029490860294C06E02948006810F0010F29
:1019A00000D002E0641E002CF6D100BF0CB94FF04D
:1019B000010A15E0362008F075F900BF3D2008F057
:1019C00071F910F0F00FF9D13A2008F06BF926B157
:1019D00000F092F8701EC6B2B3E74FF0010A00BFE4
:1019E00000BF3B2008F05EF90621022008F09BF9B9
:1019F00008480078032801D100F0ACF84FF480408B
:101A00000C494861400008615846FEF7C3FB504648
:101A1000BDE8F09FB000002078FB0008415353451B
:101A20005254206572726F7221212D2D25733A2533
:101A3000640A00000020014014040140407E0500BB
:101A40000808014010B516480078012800D010BDE4
:101A500001201449086000BF1348006810F0400FCF
:101A6000FAD101200F49091F086081212C2008F0BC
:101A70005AF935212D2008F056F909212E2008F0B9
:101A800052F9022006490870362008F00BF900BF11
:101A90003D2008F007F910F0F00FF9D100BFD6E7AC
:101AA000B0000020140C01400808014000BFFEE710
:101AB0000246802A07DBA2F5807000EBD0735B1032
:101AC000A3F14F0105E0104602EBD0735B10A3F1C8
:101AD0004F0111F1800F01DA6FF07F0148B27047BA
:101AE00070B50446FEF752FB054620460DF0D6FBC6
:101AF0002846FEF74FFB70BD70B5FFF777FD00F08D
:101B00000F00451C002405E004480088FFF7E8FFAB
:101B1000601CC4B2AC42F7DB70BD00009A0000202C
:101B200010B5062001218140084A430942F82310DC
:101B300000BF362008F0B6F83B2008F0B3F83A2092
:101B400008F0B0F801200249086010BD80E100E013
:101B50001404014010B5012008490860342008F041
:101B6000A1F806200121814042094FF0E02303EB58
:101B70008202C2F8001100BF10BD00001404014031
:101B800038B500BF45480078032808D000BF4FF49F
:101B90005D72434943A003F039FE00BFFEE700BF7A
:101BA0003B2008F0AFF8054600BF2C463B2008F06C
:101BB000A9F80546AC42F8D1002C6DD03F4800682A
:101BC000401C3E4908600121684608F0A3F89DF8D2
:101BD0000000C01C844208D19DF80000401C3E2833
:101BE00003DC9DF800000B281BDA35480068401C18
:101BF00033490860FEF7CAFA0546362008F052F865
:101C000000BF3D2008F04EF810F0F00FF9D13A2057
:101C100008F048F8342008F045F82846FEF7BAFAEC
:101C20003AE03E212748FEF736FB9DF800002549A3
:101C300008709DF800102348401C08F06BF8022142
:101C400020483E3008F066F81E4890F83F0010F03B
:101C5000800F05D11C480068401C1B4908601BE030
:101C60001848401CFFF714FDB0B91648401DFFF797
:101C700017FB88B1134991F83E00FFF719FF11498E
:101C800081F83E00084690F83F0000F07F010D48C3
:101C900080F83F10FFF726FD38BD0000B00000209F
:101CA00086FB0008415353455254206572726F728F
:101CB00021212D2D25733A25640A0000AC00002057
:101CC000A8000020F8130020A400002000BFFEE7B9
:101CD00070B5002100230F22C4780CB3164C246881
:101CE00004F4E064C4F5E064210AC1F10403CA40CD
:101CF000447804FA03F184781440214309010F4C1D
:101D00000678A155047804F01F050124AC4005783D
:101D10006D114FF0E02606EB8505C5F8004109E09E
:101D2000047804F01F050124AC40054D06787611B7
:101D300045F8264070BD00000CED00E000E400E036
:101D400080E100E02DE9F04105460E4614464FF0D3
:101D500000080CB9BDE8F08115B904202070F9E73E
:101D600016B90C202070F5E719480078002802DD2C
:101D700012202070EEE72878012808D0022807D02A
:101D8000032802D0042804D100E000BF00BF00BF38
:101D900002E001202070DDE700BFFEF7F7F9804682
:101DA000304601F0D9FD07460F2F05DD4046FEF70E
:101DB000F1F90B202070CDE7314605F10F0001F05D
:101DC000BDFD4046FEF7E6F90020207000BFC1E7E8
:101DD0007D08002010B500F017F801F015FC01F0A7
:101DE0003DFC01F05FFC01F0E7FB01F0BFFB01F0FF
:101DF000EDFC01F011FD01F089FC01F0ADFC01F0FA
:101E000097F900F007F810BD0020014908807047DD
:101E1000600800207047000010B5002423480078B7
:101E2000012841D1FEF7B2F9044621480078002884
:101E300004DD1F480078401E1D4908701C480078CA
:101E400000282ED11B48007800282AD101F060FD1F
:101E50001948007819490978884222D0184816494B
:101E6000097850F82100012814DD15481249097835
:101E700050F821001349086008460068406B401C78
:101E80000968486310480068401C0F490860FEF765
:101E90009BF906E008480278084801780BA003F097
:101EA000B5FC2046FEF776F910BD0000860800203C
:101EB0007D0800207E080020800800207F08002088
:101EC000A874002094080020640800204F53496E35
:101ED00074457869743A0A4F535072696F4375724A
:101EE0003A25640A4F535072696F486967685264B3
:101EF000793A25640A0000002DE9F84F06460F469E
:101F000090461C46002000900CB9BDE8F88F1EB921
:101F1000622020700020F8E716F0030F03D0622043
:101F200020700020F1E7022F03D25B2020700020F8
:101F3000EBE7B8F1040F03D25C2020700020E4E747
:101F4000FEF724F9009016480568006820B114488F
:101F500000684068124908600098FEF71BF91DB937
:101F60005A2020700020D0E7B14606EB080A4FF057
:101F7000000B05E0C9F800A0D146C2440BF1010BEB
:101F8000781E5845F6D80020C9F800002E606E6013
:101F90002F61EF60C5F8088020702846B5E7000083
:101FA000A00800202DE9F04104460D46002715B990
:101FB0000020BDE8F0811CB9602028700020F8E7FF
:101FC000FEF7E4F80746206960B166683068606033
:101FD0002069401E20613846FEF7DCF8002028709A
:101FE0003046E6E73846FEF7D5F85D202870002039
:101FF000DFE770B504460D4600260CB9602070BDC1
:102000000DB95F20FBE7FEF7C1F80646D4E90310DF
:10201000884204D33046FEF7BDF85E20EFE76068E3
:10202000286065602069401C20613046FEF7B2F8E8
:102030000020E4E72DE9F04106460D46002715B9DA
:102040000020BDE8F0811F2E03DB2A20287000202D
:10205000F7E721480078002803DD102028700020D1
:10206000EFE7FEF793F807461C4850F8260030B11A
:102070003846FEF78FF8282028700020E1E701207D
:10208000164941F82600164804684CB9002041F86A
:1020900026003846FEF77EF8042028702046D0E758
:1020A0000F48006840680E4908603846FEF772F82D
:1020B00004202070FF2040EA06202081002060607C
:1020C0003F20E07300212174204601F041FA0020F6
:1020D00028702046B5E700007D080020A874002085
:1020E000680800202DE9F74F82B00546164600200B
:1020F000009016B905B0BDE8F08F15B90420307016
:10210000F8E72878042802D001203070F2E78448EC
:102110000078002802DD02203070EBE7814800786B
:10212000002802DD0D203070E4E7FEF72FF8009064
:1021300028894FEA20282889C0B2FF281FD1288982
:1021400000F47F40288128897749096891F82E108A
:10215000084328817448006868607348006890F8F4
:102160002E00404505DC0098FEF714F8782030700A
:1021700004E00098FEF70EF800203070BAE72889D6
:10218000C0B201906C6894F82E0040457DDD664831
:10219000006890F82E100198814279DA94F8309016
:1021A000624810F8090094F83110084216D05F48D0
:1021B00010F8090094F8311088435C4901F80900CF
:1021C000084610F8090030B994F8321058480078E1
:1021D0008843574908704FF0010A15E0E7698FB14D
:1021E00014F8301F07F10B00405C6178884314F845
:1021F000302907F10B01885404D1B87A94F83210D1
:102200008843B8724FF0000A04F82E8F2078C0106F
:10221000A070207800F007006070A178012088404D
:102220002071617801208840E070A4F12E04BAF199
:10223000010F13D104F13004A0783D49097840EA38
:1022400001003B49087020783849085C617840EA11
:10225000010014F83019354A505414E0E76997B179
:10226000B87A04F13004A17840EA0100B87221780C
:1022700007F10B00405C617840EA010014F8302956
:1022800007F10B0188542B4800E001E040F828409A
:102290002548006890F82C0040F010002249096899
:1022A00081F82C004FF000001F49096881F82D00CB
:1022B0001D49039809684885284601F00BF90098E4
:1022C000FDF768FF01F0C4FAFDF760FF00901648C3
:1022D000006890F82D00C0B11348006890F82DB048
:1022E000284601F061F80098FDF754FFBBF1010F9B
:1022F00003D0BBF1020F03D000BF0A20307002E010
:102300000E20307000BF00BFF4E6002006490968C7
:10231000C8610098FDF73EFF0020307000BFE9E67D
:102320007D0800207E0800208C0800208208002004
:1023300081080020A87400202DE9F0410446002700
:102340002E480078002802DD0520BDE8F0810CB998
:102350000420FAE72078042801D00120F5E7FDF7F2
:1023600015FF0746208906122089C5B224496068F6
:102370000968884204D03846FDF70CFF6420E4E782
:102380001F48006890F82E00B04204D129461C482E
:10239000006800F039F801201A4941F82600A07AB7
:1023A00008B3002310221946204601F025F80546FF
:1023B000208900F47F402081208928432081114812
:1023C00050F825006060B54206DC3846FDF7E2FEB5
:1023D00001F03EFA7820B8E73846FDF7DBFE01F061
:1023E00037FA0020B1E7208940F0FF00208100206B
:1023F00060603846FDF7CEFE0020A6E77D0800208D
:102400008C080020A874002030B590F830201A4BBA
:102410009B5C90F83140A343174CA35423469B5C2C
:1024200033B990F83240154B1B78A343134C2370FB
:1024300000F82E1FC1F3C203837001F0070343703D
:1024400084780123A340037144780123A340C3701F
:1024500003790A4C24782343084C23708378064C74
:10246000E35CC47823438478A0F12E00024D2B5501
:10247000034B43F8210030BD820800208108002072
:10248000A87400202DE9F04106460D464FF00008E3
:1024900015B90020BDE8F0811EB904202870002085
:1024A000F8E73078022803D0012028700020F1E7F7
:1024B000FDF76CFE80467468E08A00280FDD216914
:1024C000081D20610F68E08A401EE082A168206933
:1024D000884201D1606820610020287002E01F203E
:1024E000287000274046FDF755FE3846D2E7000029
:1024F0002DE9F04106460F464FF0000822480078CB
:10250000002802DD0020BDE8F081FDF73FFE804697
:102510001E480468006820B11C48006840681B49D8
:1025200008604046FDF736FE0CB3FDF72FFE8046EF
:1025300017480568E5B1006800681549086040461D
:10254000FDF728FE6E6006EB8700A860EE602E6146
:10255000AF820020E8820220207000202081656088
:102560003F20E07300212174204600F0F1FF08E0D5
:10257000064800686060054804604046FDF70AFEB2
:1025800000242046BFE700007D08002068080020E6
:10259000A40800202DE9F0470446894615464FF06F
:1025A000000A15B92046BDE8F0871CB90420287040
:1025B0002046F8E72078022803D001202870204622
:1025C000F1E738480078002803DD0F202870204606
:1025D000E9E7FDF7DBFD8246A07A10B14FF0010874
:1025E00001E04FF00008B9F1000F03D0B9F1010F7D
:1025F0004DD123E0B8F1000F19D13F20E073002145
:10260000217466682848006830602748066000200A
:102610002070264800686060002020812348046004
:102620005046FDF7B7FD00202870002705E0504612
:10263000FDF7B0FD4920287027462FE005E0002374
:1026400004221946204600F0D7FEA07A0028F6D1D1
:102650003F20E073002121746668134800683060F1
:10266000114806600020207010480068606000205B
:1026700020810E4804605046FDF78CFDB8F1010F33
:1026800001D101F0E5F800202870002706E050464F
:10269000FDF780FD07202870274600BF00BF3846A1
:1026A00081E700007D080020A408002068080020C1
:1026B00070B5054600260DB9042070BD28780228A3
:1026C00001D00120F9E7FDF761FD06466C686068FE
:1026D000E060606820610020E0823046FDF75AFD2E
:1026E0000020EAE72DE9F0470646884615464FF0F8
:1026F000000A15B90020BDE8F0871EB90420287033
:102700000020F8E73078022803D00120287000204C
:10271000F1E73E480078002803DD02202870002001
:10272000E9E73B480078002803DD0D2028700020F1
:10273000E1E7FDF72BFD82467468E08A002813DD8F
:102740002169081D20610F68E08A401EE082A168AF
:102750002069884201D1606820615046FDF71AFD6A
:10276000002028703846C6E72A48006890F82C00F8
:1027700040F004002749096881F82C000020254911
:10278000096881F82D0023480068A0F82A803046A7
:1027900000F0A0FE5046FDF7FDFC01F059F8FDF7F2
:1027A000F5FC82461B48006890F82D00C8B1194816
:1027B000006890F82D90304600F0F6FD5046FDF789
:1027C000E9FCB9F1010F03D0B9F1020F03D000BF4A
:1027D0000A20287002E00E20287000BF00BF0020F1
:1027E00089E70C480068076A00200A4909680862FE
:1027F0000849096881F82C0006490968C8615046F3
:10280000FDF7C8FC00202870384674E77D080020DA
:102810007E0800208C0800202DE9F04105460E4678
:10282000002715B90420BDE8F0812878022801D0DE
:102830000120F8E7FDF7AAFC0746A87A60B100235B
:1028400004223146284600F0D7FD3846FDF7A2FCA9
:1028500000F0FEFF0020E6E76C68E08AA18A88426B
:1028600004DB3846FDF796FC1E20DCE7E168081D16
:10287000E0600E60E08A401CE082D4E902108842E9
:1028800001D16068E0603846FDF784FC0020CAE7AB
:1028900070B50546002612480078002801DD0020AA
:1028A00070BDFDF773FC06460E480468006820B151
:1028B0000C48006840680B4908603046FDF76AFC28
:1028C0005CB1032020702581002060603F20E07310
:1028D00000212174204600F03BFE2046E0E7000086
:1028E0007D080020680800202DE9F047044688464E
:1028F00015464FF0000915B92046BDE8F0871CB910
:10290000042028702046F8E72078032803D001200F
:1029100028702046F1E72F480078002803DD0F20BB
:1029200028702046E9E7FDF731FC8146A07A08B11E
:10293000012700E00027B8F1000F03D0B8F1010F24
:102940003ED11BE09FB93F20E0730021217400209D
:102950002070214800686060002020811E480460CB
:102960004846FDF717FC00202870002605E0484681
:10297000FDF710FC49202870264628E005E00023DA
:1029800001221946204600F037FDA07A0028F6D132
:102990003F20E07300212174002020700E48006861
:1029A0006060002020810C4804604846FDF7F2FB7F
:1029B000012F01D100F04CFF00202870002606E016
:1029C0004846FDF7E7FB07202870264600BF00BFFA
:1029D000304692E77D080020680800202DE9F0418C
:1029E00005460E4614464FF000080CB9BDE8F081CC
:1029F00015B904202070F9E72878032802D00120B7
:102A00002070F3E730480078002802DD02202070B3
:102A1000ECE72E480078002802DD0D202070E5E765
:102A2000FDF7B4FB80462889002808DD2889401E70
:102A300028814046FDF7AEFB00202070D6E72448F1
:102A4000006890F82C0040F001002149096881F8E5
:102A50002C0000201E49096881F82D001C480068E0
:102A60004685284600F036FD4046FDF793FB00F012
:102A7000EFFEFDF78BFB80461548006890F82D00AF
:102A8000B0B11348006890F82D70284600F08CFC17
:102A90004046FDF77FFB012F02D0022F03D000BF7D
:102AA0000A20207002E00E20207000BF00BF9DE7CA
:102AB000002007490968C8614046FDF76BFB00200C
:102AC000207000BF92E700007D0800207E080020F3
:102AD0008C08002070B5044600250CB9042070BD98
:102AE0002078032801D00120F9E7FDF74FFB0546C8
:102AF000A07A60B1002301221946204600F07CFC38
:102B00002846FDF747FB00F0A3FE0020E7E72089F9
:102B10004FF6FF71884207D22089401C2081284649
:102B2000FDF738FB0020DAE72846FDF733FB3220BB
:102B3000D5E7000010B50B48007890B900F0E8FE2A
:102B4000094800780949087009480749097850F888
:102B50002100084908600846006807490860FDF739
:102B60001CFB10BD86080020800800207F08002084
:102B7000A8740020940800208C08002010B50024C0
:102B8000022000F007FAFDF701FB044600200B4984
:102B900008602046FDF7FEFA0A2000F0FBF9FDF779
:102BA000F5FA044605480068054908600120054912
:102BB00008702046FDF7EEFA10BD000088080020DE
:102BC000740800207C080020704700002DE9FE4FAB
:102BD00006460F4690461C464FF000091F2C02DDAA
:102BE0002A20BDE8FE8FFDF7D1FA81461F48007804
:102BF000002804DD4846FDF7CDFA3C20F1E71C48EB
:102C000050F8240060BB0120194941F824004846CF
:102C1000FDF7C0FA002342463946304600F06CF911
:102C200082460020009001900346024651460290E1
:102C3000204600F09BFE054635B90E480078012875
:102C40000CD100F005FE09E0FDF7A0FA8146002056
:102C5000074941F824004846FDF79CFA2846C0E79A
:102C60004846FDF797FA2820BBE700007D080020C2
:102C7000A8740020860800202DE9F04F85B0814619
:102C80008A4693461C46DDE90F78129D002003908A
:102C90001F2C03DD2A2005B0BDE8F08FFDF776FA82
:102CA000039022480078002804DD0398FDF772FAAB
:102CB0003C20F0E71E4850F8240088BB01201C4946
:102CC00041F824000398FDF765FA2A464146384644
:102CD00000F05AFF2B465A465146484600F00CF980
:102CE00004901198CDE9008002953A4620460E9B4B
:102CF000049900F03BFE064636B90E4800780128DC
:102D00000CD100F0A5FD09E0FDF740FA039000208A
:102D1000074941F824000398FDF73CFA3046BAE72A
:102D2000FFE70398FDF736FA2820B4E77D08002076
:102D3000A874002086080020704770472DE9F047EE
:102D400005460F4614464FF000090CB9BDE8F08760
:102D50001F2D04DDFF2D02D02A202070F6E717B9C1
:102D60000C202070F2E71D480078002802DD1220B8
:102D70002070EBE7FDF70AFA8146FF2D03D11848D2
:102D8000006890F82E50174850F825602EB9484634
:102D9000FDF700FA43202070D8E7012E05D1484600
:102DA000FDF7F8F943202070D0E7384600F0D4FD55
:102DB0008046B8F10F0F05DD4846FDF7EBF94120DD
:102DC0002070C3E7394606F1480000F0B7FD4846D9
:102DD000FDF7E0F90020207000BFB7E77D08002074
:102DE0008C080020A87400202DE9F04104460E460E
:102DF00000271F2C04DDFF2C02D02A20BDE8F08123
:102E00000EB90920FAE7FDF7C1F90746FF2C03D1F7
:102E10000E48006890F82E400D4850F8245025B90F
:102E20003846FDF7B7F92920E8E7012D04D13846E7
:102E3000FDF7B0F94320E1E758222946304600F07B
:102E4000BAFC3846FDF7A6F90020D7E78C08002029
:102E5000A8740020704700002DE9F04706460C4694
:102E60004FF0000A1F2E04DDFF2E02D02A20BDE8FD
:102E7000F0870CB90920FAE7002020606060FDF7B8
:102E800085F98246FF2E03D11948006890F82E601C
:102E9000184850F8265025B95046FDF77BF94320D5
:102EA000E5E7012D04D15046FDF774F94320DEE734
:102EB000288A10F0010F04D15046FDF76BF9452028
:102EC000D5E70027D5F80C90D5F808805046FDF7D7
:102ED00061F900E07F1C58F8041B0029FAD0B80003
:102EE0002060A9EB0700800060600020BFE70000C1
:102EF0008C080020A874002070B5044610464FF0DE
:102F000080750560051F28462C606FF00106051FBF
:102F100028462E604FF01236051F28462E604FF0CF
:102F20000336051F28462E604FF00236051F28463F
:102F30002E607610051F28462E60051F2846296042
:102F40004FF01136051F28462E604FF01036051F32
:102F500028462E604FF00936051F28462E604FF098
:102F60000836051F28462E604FF00736051F2846F5
:102F70002E604FF00636051F28462E604FF00536AE
:102F8000051F28462E604FF00436051F28462E6088
:102F900070BD704770B505460026164800780028B9
:102FA00000DD70BD002D23DDFDF7F0F80646124868
:102FB000006890F830401148005D0F49096891F8A9
:102FC000311088430D4908550846005D40B90A484C
:102FD000006890F832100A48007888430849087061
:102FE0000548006845853046FDF7D4F800F030FC10
:102FF00000BFD6E77D0800208C0800208208002052
:103000008108002070B5002600F076F8FDF7BEF8C4
:10301000064633480068401C314908603046FDF7D9
:10302000B9F830480078012858D12F48007820B1ED
:10303000012804D0022809D103E001250BE0002576
:1030400009E0012501202849087004E0012500203D
:103050002549087000BF00BF05B970BD234804684A
:1030600038E0FDF793F80646608D78B3608D401E1A
:103070000004000C608529D194F82C0010F0370F63
:1030800009D014F82C0F20F0370020700120607058
:10309000A4F12C0402E0002084F82D0094F82C0008
:1030A00010F0080F12D104F13004A078104909780B
:1030B00040EA01000E49087020780E49085C6178EA
:1030C00040EA010014F830190A4A50546469304645
:1030D000FDF760F894F82E001F28C2D100BFBCE7AE
:1030E000A8080020860800209C08002098080020DE
:1030F000810800208208002010B507480088401C85
:1031000005490880084600880A2803DB002008805B
:1031100000F004F810BD00006008002010B503485E
:103120000068FFF7D7FC0446204610BDB808002011
:10313000F8B54FF45071274800F034FB4021264881
:1031400000F030FB234C04F1340600250FE064202E
:103150002070002084F83100E6603F2084F82000D1
:1031600000212120015534343436681C85B20F2DDE
:10317000EDDB64202070002084F83100E0603F2007
:1031800084F8200000212120015500201349086007
:10319000134908801020134908800E48124908601E
:1031A0000120FFF775FB114908600020FFF770FB55
:1031B0000F4908606A460FA10C480068FEF7C2FD7F
:1031C0006A460FA10A480068FEF7BCFD00F01EF831
:1031D000F8BD00004482002084860020B008002052
:1031E000AE080020AC080020BC080020B408002075
:1031F000B80800204F532D546D724C6F636B000064
:103200004F532D546D7253696700000000B587B0AD
:103210000320002140220A4BCDE90132CDE9031001
:103220004FF6FD701D23064AFC3200900548FFF75B
:1032300023FD06AA04A11D20FFF780FD07B000BDF5
:1032400084850020D932000875432F4F532D4949FA
:1032500020546D720000000070B50B46032580F805
:103260003150012B05D1154EC5693668354445618D
:103270000CE085692DB9114EC56936683544456144
:1032800004E00E4E8569366835444561456905F0B0
:1032900007040B4D05EBC4010D682DB9086000252E
:1032A000C56001258D8006E00A680860C260106173
:1032B0008D886D1C8D800025056170BDB0080020D3
:1032C0008486002008B56A46002102480068FFF79E
:1032D00085FB08BDB408002008B500BF6A46002180
:1032E00019480068FFF77AFBFFF7ECFF1748006802
:1032F000401C164908600846006800F0070814489A
:1033000000EBC8073C681AE0E66810496069096884
:10331000884213D1656815B12046A168A8472046A8
:1033200000F018F894F83000022804D1012120465A
:10333000FFF792FF02E0022084F831003446002CAF
:10334000E2D100F029F8C9E7B8080020B008002051
:103350008486002030B5456905F007040D4D05EB66
:10336000C4031D68854205D1C168196039B10025C3
:103370000D6104E00169C268CA6002B111610125F2
:1033800080F831500025C56005619D886D1E9D80C7
:1033900030BD00008486002010B502480068FFF7A9
:1033A00099FB10BDB4080020124A126892F8301040
:1033B00000F10B02525C0F4B1B6893F831309A43BB
:1033C00000F10B035A541A46525C32B9827A094B07
:1033D0001B6893F832309A4382720022054B1B68B7
:1033E00083F82D20034B1B6883F82C20014B1B68AE
:1033F000DA6170478C0800202DE9F04704460D463D
:10340000164694F80A90DFF8BCA01AF809204FF08D
:10341000010909FA02F909F0FF0804F10B0919F88A
:1034200002901AF809704FF0010909FA07F909F03A
:10343000FF0C07EBC20909F0FF0004F10B0919F8B2
:10344000029029EA0C0904F10B0A0AF80290D1460D
:1034500019F80290B9F1000F05D194F80A9029EA01
:10346000080984F80A90DFF8609059F820104FF0AE
:103470000009A1F82A90C1F81C900D6281F82D3046
:1034800091F82C9029EA060981F82C9091F82C905B
:10349000B9F1000F13D1DFF8349099F8009049EAA0
:1034A0000809DFF828A08AF80090DFF8249019F8BE
:1034B000029049EA0C09DFF818A00AF80290BDE86A
:1034C000F087000058FD0008A87400208108002043
:1034D0008208002010B51B4A1268D061194A126890
:1034E00092F83010184A525C164B1B6893F8313032
:1034F0009A43154B5A541A46525C42B9114A126803
:1035000092F83230114A12789A43104B1A700D4AD1
:10351000126892F8303000F10B02D25C094B1B6844
:1035200093F831301A43074B1B6893F8304000F191
:103530000B031A55827A034B1B6893F832301A43F7
:10354000827210BD8C0800208208002081080020B3
:103550000023837200F10B01002204E0002301F834
:10356000013B531CDAB2042AF8DB704770B58C219A
:103570000F4800F017F90E4C04F11C0600250AE074
:103580000020207066603F20A0720021E1721C3490
:103590001C36681C85B2042DF2DB002020706060B0
:1035A0003F20A0720021E17201480249086070BD0D
:1035B0001C7200206C08002030B54FF4A061104848
:1035C00000F0F0F80E4B03F1200500240AE0002083
:1035D00018705D603F20D8730021197420332035A6
:1035E000601C84B2272CF2DB0020187058603F204A
:1035F000D8730021197402480249086030BD0000E8
:103600001C6D00206808002000200A4908600A4953
:1036100008700A4908700A4908700A4908700A497E
:1036200008600A4908600A4908600A4908600A49AE
:1036300008707047A80800207D0800207E08002040
:1036400087080020860800206408002088080020E1
:1036500078080020740800207C08002000220B4B12
:103660001A700B49002004E0002201F8012B421CD3
:10367000D0B20428F8DB0022064B1A70064B1A70F1
:10368000064B1A60064B1A60704700008108002044
:10369000820800207F080020800800209408002075
:1036A0008C08002030B54FF43061144800F07AF8EF
:1036B0008021134800F076F8104B03F158050024E0
:1036C0000AE05D613F2083F8480000214920C15491
:1036D00058335835601CC4B21F2CF2D300205861F7
:1036E0003F2083F8480000214920C15400200549AB
:1036F000086002480449086030BD000028750020B9
:10370000A8740020980800209008002000B587B019
:103710000320002140220A4BCDE90132CDE90310FC
:103720004FF6FF701F23064AFC3200900548FFF752
:10373000A3FA06AA04A11F20FFF700FB07B000BDF3
:10374000A8730020993A000875432F4F532D49491B
:103750002049646C6500000000B587B0032000219B
:1037600040220A4BCDE90132CDE903104FF6FE703D
:103770001E23064AFC3200900548FFF77DFA06AA90
:1037800004A11E20FFF7DAFA07B000BDA8720020DE
:10379000BD3A000875432F4F532D4949205374619A
:1037A0007400000004E0002200F8012B4A1E91B2D0
:1037B0000029F8DC704705E011F8013B00F8013BF7
:1037C000531E9AB2002AF7DC7047000070B5B4218E
:1037D0000F48FFF7E7FF0E4C00250DE0681C00EBDB
:1037E000C0000B4901EB800060603F202075002184
:1037F00061752434681C85B2042DEFDB0020606005
:103800003F2020750021617501480249086070BDA4
:1038100028800020A008002070B54FF4B4710A4839
:10382000FFF7C0FF084C04F11806002504E02660ED
:1038300018341836681C85B20E2DF8DB0020206085
:1038400001480249086070BDDC800020A408002007
:1038500010B50024FCF79AFC04461B4800780028A9
:103860002ED11A48007800282AD100F051F81848C3
:10387000007818490978884222D0174814490978F5
:1038800050F82100012814DD13481149097850F837
:1038900021001249086008460068406B401C096816
:1038A00048630F480068401C0D490860FCF785FC20
:1038B00006E007480278074801780AA001F0A6FF51
:1038C0002046FCF767FC10BD7D0800207E08002024
:1038D000800800207F080020A874002094080020A1
:1038E000640800204F535F53636865643A0A4F537E
:1038F0005072696F4375723A25640A4F535072696A
:103900006F486967685264793A25640A00000000CC
:103910000649074A1278885C0649095C034A515CEB
:1039200001EBC001044A11707047000058FD000807
:103930008108002082080020800800200246002024
:1039400005E011F8013B02F8013B431CD8B20B78AB
:10395000002BF6D1137070470146002002E0491C8D
:10396000421CD0B20A78002AF9D170472DE9F84FED
:1039700005460E4617469846DDE90BABDDF8289064
:1039800000200090FCF702FC00903D480468002CE9
:1039900071D054F8140F3A4908600098FCF7FAFB0C
:1039A00044F8146CA576002020766076E08244F816
:1039B00010AC44F8089C44F80C7C24F804BC24F8AF
:1039C000028CE077E8102077217F01208840A077E3
:1039D00005F00700E076E17E012088406077002056
:1039E000A0602061E0602062A0626062E06220630B
:1039F0003F2084F83400A4F114044FF000014FF08C
:103A0000490001552046FFF7DFF82046FFF794F9FB
:103A1000FCF7BCFB00901B4840F825401A480068A2
:103A200060610020A0611848006810B11648006865
:103A300084611548046004F13004A07813490978C2
:103A400040EA01001149087020781149085C61784A
:103A500040EA010014F830190D4A50540D4800781E
:103A600000F101000B4908700098FCF793FB00205F
:103A7000BDE8F88FFFE70098FCF78CFB4220F7E7E2
:103A800090080020A87400209808002081080020D9
:103A90008208002087080020002400BFFCF776FB86
:103AA000044605480068401C034908602046FCF7AE
:103AB00071FBFFF742F9F1E788080020002700BFFB
:103AC00002E01420FFF766FA1B4800780028F8D0BF
:103AD0001A4800686421B0FBF1F400BFFCF756FB04
:103AE000074617480068174908601548066800200F
:103AF000134908603846FCF74DFB6CB1B6FBF4F097
:103B0000C0F1640045B2002D02DB0F4805700BE0E8
:103B100000200D49087007E000200B490870074895
:103B200000686421B0FBF1F4FFF794F900F00EF89F
:103B30000A20FFF72FFAD1E77C0800207408002044
:103B40008808002078080020700800207CB5002537
:103B500014E069462846FFF77FF9064666B909482A
:103B600050F8254044B1012C06D0D4E9020100EB05
:103B70008100206401986064681CC5B21F2DE8DDD7
:103B80007CBD0000A874002012F0010F08D012F0D4
:103B9000020F05D002E0491E002308C00029FAD117
:103BA00070472DE9F84F0446884691469A46FCF73F
:103BB000EDFA00900BF06CFB8346A068050067D01F
:103BC00000BFA868ABEB0000B0F57A7F01D90227EF
:103BD0000BE0287B404507D1687B484504D16868E5
:103BE000504501D1012700E00027BFB12868A0603F
:103BF000A06808B90020E0606068286065602068FF
:103C000010B12068401E2060012F05D10098FCF7FC
:103C1000C1FA2846BDE8F88FA56800E001E0002D54
:103C2000CFD100BF25B90098FCF7B4FA0020F1E726
:103C30002E682BE0B068ABEB0000B0F57A7F01D9BD
:103C400002270BE0307B404507D1707B484504D10B
:103C50007068504501D1012700E00027A7B1306806
:103C6000286000B9E560606830606660206810B167
:103C70002068401E2060012F04D10098FCF78AFACA
:103C80003046C7E72E6801E035463668002ED1D1B0
:103C90000098FCF77FFA0020BCE7000029B1064A33
:103CA00052690243044B5A6104E0034A5269824359
:103CB000014B5A61704700000010024029B1064ACA
:103CC000D2690243044BDA6104E0034AD2698243B9
:103CD000014BDA61704700000010024029B1064A2A
:103CE00092690243044B9A6104E0034A9269824359
:103CF000014B9A61704700000010024030B500216E
:103D00000022002400232D4D6D6805F00C0121B127
:103D1000042905D0082923D105E0294D056022E0BA
:103D2000274D05601FE0254D6D6805F47012234D89
:103D30006D6805F48034022505EB92421CB9214DD3
:103D4000554305600BE01D4D6D6815F4003F03D031
:103D50001C4D5543056002E0194D5543056002E0D6
:103D6000174D056000BF00BF144D6D6805F0F001F0
:103D70000909154D6B5C0568DD4045600F4D6D68A8
:103D800005F4E061090A104D6B5C4568DD40856013
:103D90000A4D6D6805F46051C90A0B4D6B5C4568AE
:103DA000DD40C560054D6D6805F44041890B074D48
:103DB0006B5CC568B5FBF3F5056130BD00100240D2
:103DC00000127A0000093D008400002094000020C9
:103DD0002DE9F04104460D460027A4F57F40FF3849
:103DE00000D044B910480068C8B1002028600E48CF
:103DF0000068BDE8F081274600260EE00A4800680A
:103E000020B10020286008480068F2E70020074938
:103E10000860012005F0ACFC761CBE42EED30A20FF
:103E200028600020E5E700000408002024080020A6
:103E30002DE9F04788B004460D4616461F464FF060
:103E4000020A4FF00008204606F058FE8146B9F1FC
:103E5000000F30D007208DF8000000208DF8010001
:103E60008DF802408DF8035001960297D9F80200B0
:103E7000049006F08BFE0068039006F03BFE059070
:103E8000CDF818D014208DF81C0006208DF81D00E8
:103E900005AA0321022000F071F88246FDF73EFAE0
:103EA0008046B8F1030F06D0B8F1010F01D1FDF73C
:103EB000C9FDFDF767FC504608B0BDE8F08700007B
:103EC00070B50446FCF762F90546034804602846CD
:103ED000FCF760F970BD0000B800002010B5FCF7D9
:103EE00055F90446362005F0DDFE00BF3D2005F003
:103EF000D9FE10F0F00FF9D13A2005F0D3FE3420AE
:103F000005F0D0FE2046FCF745F910BD04280CDA78
:103F1000064901EB00114968044A02EB0012916066
:103F20000121024A02EB001251707047A80B0020D9
:103F300070B5054610480078A8B9FDF70DFA284677
:103F400006F0BCFF040001D0204670BDFDF77AFDED
:103F5000FDF718FC06F01AFE0646FDF76BFCFDF7B0
:103F6000B3F9FCF701FB01200349087006F03EFF9E
:103F700004462046E9E70000540700202DE9F041FF
:103F800005460C4616460027082D3DD2DFE805F011
:103F90003C3D15252B0A04303146204606F041FDF4
:103FA000074634E0012C00D02CB93146204606F0FB
:103FB00050FD074600E0022729E0032C04D13046DB
:103FC00007F0DAF8074607E0022C04D1304607F084
:103FD000C1F8074600E0022719E03146204607F005
:103FE00082F8074613E0204606F012FF07460EE06F
:103FF0000E2C03D101F030FF074604E00F2C02D154
:1040000001F04CFF074602E000BF022700BF00BFDF
:104010003846BDE8F08170B5044606F08FFD0546D0
:104020000DB9012070BD25700020FBE72DE9FE438E
:1040300004460E461746204606F060FD05464FF042
:10404000020835B10021284606F0DAFC5FEA0008D4
:1040500002D04046BDE8FE8301208DF804008DF8B3
:104060000840002003463A463146009001A807F078
:10407000A7F8EFE72DE9F04781460E461746484678
:1040800006F03CFD05464FF0020A35B101212846F5
:1040900006F0B6FC5FEA000A02D05046BDE8F087A1
:1040A0000EB1322F01DD0220F8E795F809806B7818
:1040B0003A463146404606F059FC040001D103203F
:1040C000ECE7D5F80210C4F80510601D06F052FEAA
:1040D00018B1032020700020E0E70121204607F0FE
:1040E000E3F8DBE72DE9F04782460E461746B04677
:1040F0003D4600244FF0140923E04FF0140900BF9F
:10410000002012490860322D01DD322000E02846EF
:10411000C2B241465046FFF7ADFF044604B908E07D
:10412000012001F0D9F9A9F1010914B1B9F1000F89
:10413000E6DC00BF14B12046BDE8F08708F1320884
:10414000323D002DD9DC2046F6E70000240800208F
:1041500000B587B0012141F20C00FFF7BFFDE02060
:10416000ADF8040018208DF8070003208DF8060034
:1041700001A91A48FCF7A2FF0120ADF804001020A5
:104180008DF8070001A91648FCF798FF0120144993
:10419000103108600020ADF808004FF48270ADF8CF
:1041A0000A000020ADF80C00ADF80E00ADF81000CC
:1041B0004815ADF812001020ADF814000020ADF83D
:1041C00016000720ADF8180002A9064800F018F8FC
:1041D0000121044800F008F807B000BD00080140C4
:1041E000000C01400030014021B1028842F0400241
:1041F000028004E002884FF6BF731A4002807047C5
:1042000010B50022028802F441520B884C882343E7
:104210008C882343CC8823430C8923434C89234334
:104220008C892343CC8923431A430280838B4FF22A
:10423000FF74234083830B8A038210BD014600BFB5
:10424000084A128912F0020FFAD0064A918100BF83
:10425000044A128912F0010FFAD0024A9289D0B2B0
:10426000704700000030014038B504460D46214932
:1042700051F8241041F001000121FFF72FFD34B95E
:104280001D4951F824000121FFF728FD05E01A49D6
:1042900051F824000121FFF711FD184830F81400EF
:1042A000ADF8000018208DF8030003208DF80200FF
:1042B000134951F824006946FCF700FF114830F813
:1042C0001400ADF8000004208DF803000C4951F8EB
:1042D00024006946FCF7F2FE0B4951F824002946F8
:1042E00000F01CFC084951F82400012100F0FCFBFF
:1042F00038BD000010FB000804FB00081CFB000890
:104300007800002022FB00086C00002038B504462D
:104310000D4951F824000121FFF7E0FC0B4830F86B
:104320001400ADF8000010208DF8030003208DF874
:104330000200074951F824006946FCF7BFFE2046F9
:1043400000F008F838BD000084FA00087CFA000884
:104350003C000020074931F81010074A52F820208D
:104360001161044931F81010034A52F820201161FC
:10437000704700007CFA00083C000020034931F837
:104380001010034A52F82020516170477CFA00084F
:104390003C00002039B90F4A32F810200E4B53F878
:1043A00020301A6115E0012907D10A4A32F810209D
:1043B000094B53F820305A610BE0074A52F820208D
:1043C000D268044B33F810305A40034B53F8203076
:1043D000DA6070477CFA00083C000020064951F87A
:1043E0002010C968054A32F810205140024A52F89C
:1043F0002020D160704700003C0000207CFA0008BB
:1044000070472DE9F04705460E4617469846FBF7DC
:10441000BDFE8146AC680FE0207BB0420BD1607BD3
:10442000B84208D16068404505D14846FBF7B2FE66
:104430002046BDE8F0872468002CEDD14846FBF704
:10444000A9FE0020F5E7000030B589B001AC1220CC
:1044500020800320A07011480088A080F220E07026
:10446000684600F0FBFEBDF80200C0F30B00ADF89B
:1044700002000B480078A0710A480078E0710098AB
:10448000A06004F1100510202870022068702188B7
:10449000204600F009F809B030BD000000080020F7
:1044A0009A070020A0000020F8B504460D4600261B
:1044B000CCB16A4600210D480068FDF713FE0C4898
:1044C000007860B100232A4621460A48006804F0BB
:1044D000F3FF0646002E02DC07A001F097F903481F
:1044E0000068FDF729FF3046F8BD000008000020F5
:1044F0001C0000201800002073656E642065727235
:104500006F720A0010B500F001F810BD0021002004
:10451000304A126842F480322E4B1A6000BF2D4A96
:10452000126802F40030491C10B9B1F5A06FF6D141
:10453000284A126812F4003F01D0012000E0002058
:10454000012843D1244A126842F01002224B1A601B
:104550001A46126822F003021A601A46126842F0E4
:1045600002021A601B4A52681A4B5A601A46526875
:104570005A601A46526842F480625A601A4652687B
:1045800022F47C125A601A46526842F4E8125A60C9
:104590001A46126842F080721A6000BF0D4A126813
:1045A00012F0007FFAD00B4A526822F00302094B46
:1045B0005A601A46526842F002025A6000BF054A29
:1045C000526802F00C02082AF9D101E000BFFEE7B0
:1045D000704700000010024000200240042804DA66
:1045E0000121024A02EB001251707047A80B002013
:1045F000042804DA0021024A02EB001251707047CD
:10460000A80B002010B5FBF7C1FD04460648007852
:10461000401C054908702046FBF7BCFDFEF7F2FC84
:10462000FDF7FAFB10BD00007D08002070B524489E
:10463000006840F0010022490860084640682149AE
:1046400008401F494860084600681F4908401C4947
:1046500008600846006820F480200860084640682A
:1046600020F4FE0048604FF41F008860FFF74AFF07
:104670001649B1F1807F01D301201DE021F07F4078
:10468000401E4FF0E022506150170022002807DA48
:1046900013071D0E0E4B00F00F04241F1D5503E0E1
:1046A00013071C0E0B4B1C5400BF00204FF0E022E0
:1046B000906107201061002008B100BFFEE770BDC7
:1046C000001002400000FFF8FFFFF6FE80FC0A0029
:1046D00018ED00E000E400E088B00120079083A01E
:1046E00001F094F802218748FDF702FF864908602F
:1046F00002218648FDF7FCFE8549086006A90020D6
:10470000FDF798FC834908600020FEF7C1F8824954
:10471000086000220121022004F0F2FF7F490860B6
:104720000020029003900490059002208DF809006B
:104730007B480068C068039042F2107003F0F3FBFE
:10474000ADF80A00002517E0102202A9734800689E
:1047500004F08EFD044604B90FE06D1C012D08DD48
:104760006F48006801F060FE6D480068C068039003
:1047700000256420FEF70EFCE6E700BF042007AB2F
:104780000122062100906548006804F0EDFE01203A
:1047900064490870002261480168634808F0C2F962
:1047A00000224FF4FA616148FBF7BEFF60490860E0
:1047B00008460068FFF712FF96E006AA002152485B
:1047C0000068FDF78FFF06469DF818000028F3D11A
:1047D00026B1012E62D0022E5FD16EE006AA002122
:1047E0004C480068FDF77EFC4C48006804F0CAFCA9
:1047F00000220121022004F083FF484908600025BF
:104800002FE0102202A94548006804F031FD04465B
:1048100004B927E06420FEF7BDFB6D1CB5F5E16F20
:104820001FDD00203E49096848863D48006801F0C8
:10483000FBFD3B480068C068039039480068408E23
:1048400038B137490968488E03F06DFBADF80A00AE
:1048500005E04FF4FA7003F066FBADF80A0040F291
:104860000575CEE700BF042007AB012206210090AA
:104870002A48006804F078FE01202A49087025487B
:104880000068FDF759FD2548016821480068FDF7DB
:10489000C3FF27480068FFF7A1FE24E006AA002115
:1048A0001C480068FDF71EFC1C48006804F09CFCD6
:1048B00018480068FDF740FD15E01E480068032811
:1048C00007D200F09FFE1B480068401C1949086091
:1048D00008E017480068FFF78BFE07F07BFE00201A
:1048E0001449086000BF00BF67E70000456E7465AB
:1048F00072205443505F656E7472795F7461736B9C
:104900000A0000002C0000200400002034000020D9
:104910000C000020080000202800002018000020C3
:10492000C00800201C00002015550008E9C500083B
:10493000200000201400002070B52E4DFBF726FC4F
:1049400006462D480078401C2B4908703046FBF77E
:1049500021FC288A10F0020F48D072B64FF6FD7085
:104960002882A88E00F57A70A88624480068401C2A
:104970002249086062B6002436E0214800EB0410AA
:10498000007880B31E4800EB0410407858B31C48F0
:1049900000EB0410806848B1194800EB04108068EF
:1049A000401E174901EB041188601CE0144800EB1D
:1049B0000410408840B9124800EB041040681049C8
:1049C00001EB0411886004E000200D4901EB0411A3
:1049D00048700B4800EB0410C06820B1084901EB97
:1049E0000411C8688047641C042CC6D3FDF714FA70
:1049F00070BD0000000400407D0800200000002081
:104A0000A80B002021B1028842F00102028004E0DC
:104A1000028840F2FE331A400280704710B51AB186
:104A200083890B43838104E08389CC43A4B2234070
:104A3000838110BD70B5002400220023058C4FF641
:104A4000FE7635400584028C8388048B4FF68F7583
:104A50002C400D882C43751E2A400D892A434D8811
:104A60002A43CD8885860F4DA84202D00E4DA8421C
:104A700013D14FF6F7752A404D892A434FF6FB753F
:104A80002A408D882A4347F6FF652B4047F6FF559D
:104A90002B408D892B43CD892B4383800483028453
:104AA00070BD0000002C014000340140028802F07B
:104AB0008F020280CA884B881A4303881A430280F7
:104AC0008A8882850A880285054A904202D0054A72
:104AD000904201D10A7A0286012282827047000048
:104AE000002C01400034014021B1828942F400527F
:104AF000828104E082894DF6FF731A4082817047FB
:104B000002460020B1F5007F00D100BF13880B42A0
:104B100001D0012000E00020704700002DE9F0479F
:104B200086B005460E460024A24600BF00BF0027FF
:104B3000B08900B100BF2F462C8A4CF6FF700440AC
:104B4000F08804432C82AC894EF6F3100440B08800
:104B500031890843718908430443AC81AC8A4FF61C
:104B6000FF400440B0890443AC8201A8FFF7C6F8B7
:104B70001148874202D1DDF810A001E0DDF80CA059
:104B80000AEBCA0000EB0A1031688900B0FBF1F8AB
:104B90006420B8FBF0F004012009642101FB1089B6
:104BA000322000EB0910B0FBF1F000F00F000443DD
:104BB0002C8106B0BDE8F08700380140C1F308023F
:104BC0008280704700BFFEE72DE9F04FD9B005465F
:104BD00049AC4FF0140A1DB9002059B0BDE8F08F60
:104BE000E878F5285FD004DCF22807D0F32877D1E5
:104BF0002EE0F62876D0FE28F9D150E01220208051
:104C0000A87800F03F00042801D1A07001E0032043
:104C1000A07056480088A080F220E07048A800F0FC
:104C20003DFABDF82201C0F30B00ADF82201504857
:104C30000078A0714F480078E0714898A06004F1B6
:104C40001009102089F80000022089F8010086E090
:104C5000A8684890BDF82201C0F30B00ADF822010E
:104C6000BDF82201A97940EA013080B2ADF82201F5
:104C700048A800F07EFB0646102020800320A0708C
:104C80003A480088A080F320E07039480078A0718D
:104C9000012E01D0012000E00020E0715FE0FBF771
:104CA00051FA012099E705F025FF459042A846906A
:104CB0000A208DF81C01A2208DF81D0100BF0120E3
:104CC00004F056FD45AA03210220FFF757F90646D6
:104CD000AAF1010A16B1BAF1000FF0DC01207CE75D
:104CE0003BE0FFE74FF4807102A8FBF7D4FA002005
:104CF000019083460027204800788DF808001F485F
:104D00000068C0B28DF809001D4800788DF80A00CF
:104D10000DF10B07D84613E01A4810F80800387058
:104D20007F1C184911F8080005F0E8FE8346BBF126
:104D3000000F03D0DBF8020038603F1D08F10108C6
:104D40000F4800788045E7D302A8381A019002A8DE
:104D50000199FFF7A9FB01203FE700203DE700BFD5
:104D600021882046FFF7A0FB012036E7000800203D
:104D70009A070020A000002048080020B807002063
:104D800049080020A051002008B5002400254FF458
:104D900048616648FBF7BAFC654908600020FDF7EA
:104DA00077FD644908600020FDF772FD62490860E4
:104DB0000020FDF76DFD614908600020FDF768FDEA
:104DC0005F4908600020FDF763FD5E49086020210F
:104DD0005D48FDF78DFB5D49086005235C4A0021B5
:104DE0005C48FDF7F3FEFCF701FC5B4908605B489B
:104DF000FCF712FA4FF440715948FBF74CFA00F0F7
:104E0000C9FA684600F02AFA0446012C08D00120AD
:104E10008DF800008DF8010040F2E730ADF8020097
:104E20009DF801004F490880084600880006000CE4
:104E300008809DF80000098808434A490880BDF8A9
:104E40000200C0F30B00ADF80200BDF8020040F410
:104E5000A040ADF80200684600F082FA9DF80030EC
:104E60009DF801203F4801883FA000F0CFFC4A4850
:104E7000FFF75EF8494805F0A5FC01210320FFF784
:104E800089FA01210220FFF785FA01210846FFF780
:104E900081FA01204249086000F090FC41A000F036
:104EA000B5FC0CE000204449086000220E210720D8
:104EB000FFF764F800B903E0002000F00DFBF1E714
:104EC00000BF31E000203C4908602846691CCDB293
:104ED000042804DD02210846FFF75CFA0025374864
:104EE0000078D0B136480078802816DA3549344A3F
:104EF00012788818FFF78FF878B9FBF747F906465C
:104F00002F480078401C2E4908702C480078401E1D
:104F10002A4908703046FBF73DF905480068FEF75E
:104F2000F5FF0520FEF736F8CCE70000DD3E00086F
:104F30004C080020F0070020F4070020E8070020BC
:104F4000EC070020E407002020510020B4070020D7
:104F50008C5B0020B1510008C407002020520020C3
:104F600010530020000800203D3D3D696E6974200B
:104F700041503D3D3D0A73797374656D49443A2053
:104F8000256420686F73743A20256420686F746507
:104F90006C3A2025640A0A00F5BF00081DC000080D
:104FA000200800205761746368446F67496E697414
:104FB000204F4B0A00000000240800204808002071
:104FC00049080020A051002070B505460C4654B990
:104FD0002D482E49086000202D49086010202A49DC
:104FE000103908804EE0012C28D1002D4AD02748E6
:104FF0000068056025480068001D244908602448B1
:105000000068401C224908601F4810380088001DB5
:105010001D49103908801E480068082832D3084608
:105020000188FFF741FA184818490860002018491C
:105030000860102014491039088023E0022C14D194
:1050400011481038008810281CD90F4810380188E2
:10505000FFF72AFA0C480D49086000200C49086047
:1050600010200949103908800CE0032C0AD11021C6
:1050700005481038FBF70FF90220034910398870F2
:105080000A20C87070BD0000FD40002040080020CC
:105090004408002010B500F00BF810BD10B5044610
:1050A00024B1224601210520FEF768FF10BD000053
:1050B00010B50AF0EDF803490968441A024800687F
:1050C000204410BDD4070020D80700202DE9F04F60
:1050D00085B005468846002D67D0B8F1000F64DD25
:1050E0002E4647463446208810285ED32088B84292
:1050F0005BD1A07800F03F00012807D12046FFF7E0
:1051000063FD012851D105B0BDE8F08FA07800F013
:105110003F00042839D1002001904FF0140A834643
:10512000FCF7FCF8009094F80690484605F0E6FC81
:105130008346BBF1000F27D00BF1020002900396CB
:10514000F8B28DF8100007208DF8110000BF02AAF8
:1051500003210220FEF712FF0190019858B9009830
:10516000032807D00098012802D1FCF78BFB01E04F
:10517000FCF7DEFA07E0002000F0AEF9AAF1010A20
:10518000BAF1000FE3DC00BF0FE0A07800F03F00B1
:10519000052800D1B7E7FFF77DFFE06094F806909F
:1051A0003A463146484600F035FA00BFABE700000A
:1051B00090B049E00FAA002124480068FDF792FA58
:1051C000044602210120FFF7E5F89DF83C00002885
:1051D0003AD1002C38D01E480068F0B1A67801AA58
:1051E00002A93046FEF722FF0546ADB90120194954
:1051F00008609DF8042002A9304606F00FFBFAF77C
:10520000C5FF07461248006812490968401A10494C
:1052100008603846FAF7BEFF00BF6368E278A178FD
:105220000D48FEF7BEFC28B16168A078032200F0AB
:105230005FF805E0FBF7F8F910B1204600F036F80A
:10524000204606F003FD0024B4E70000B407002068
:10525000B8070020BC0700202052002010B50446EB
:105260000CB9002010BD042200212046FBF740FDB0
:105270002078FF2801D0207838B90A4800682060DB
:10528000042221460020FBF741FD6088C0F30B009B
:10529000608060880449097840EA0130608001201C
:1052A000E0E7000020FD00089A07002030B587B035
:1052B00004460025CCB108208DF81000E068CDF838
:1052C0001100A068CDF8150005F014FC019004A8A9
:1052D000029009208DF80C0006208DF80D0001AA1F
:1052E00003210220FEF74AFE0546284607B030BDDE
:1052F0002DE9F04387B081460D4614460126274626
:10530000484605F0FBFB8046B8F1000F24D00C2086
:105310008DF80400D8F80200CDF80500CDF809504A
:1053200005F0E8FB049001A8059009208DF818000D
:1053300006208DF8190000BF04AA03210220FEF701
:105340001DFE064606B906E014B1022004F010FA6C
:105350007F1E002FF0D100BF304607B0BDE8F083BC
:1053600010B5044624B1224600210520FEF706FEB2
:1053700010BD10B504460CB9002010BD0422214612
:105380000020FBF7C3FC002801DA0020F5E701202C
:10539000F3E7000010B54FF4C0710248FAF77BFF45
:1053A00010BD0000105600202DE9F04707460C46BE
:1053B00015464FF00009F81F08287ED2DFE800F0FC
:1053C0004A62040A7D6A2A6609F062FF0F303D498D
:1053D000086073E026683220B6FBF0F0C0EBC00036
:1053E00006EB4000C0004FF47A7148433649B0FBE9
:1053F000F1F000F1C80840F2DC50804501D240468F
:1054000001E040F2DC50804609F042FF40442D4963
:10541000086053E026683220B6FBF0F0C0EBC00015
:1054200006EB4000C0004FF47A7148432649B0FBB8
:10543000F1F000F1C80840F2DC50804501D240464E
:1054400001E040F2DC50804609F022FF40441D4953
:10545000086033E0ACB1A5B1142006F071FC06463B
:1054600076B1142221463046FAF7FAFE3146174843
:105470000068FDF7D1F91E2802D1304606F0E6FBA0
:1054800000BF1BE008201249086017E000200D490A
:10549000086013E03CB135B12046D0F805100D4A44
:1054A000116003E009E000200A4908600020054976
:1054B00008600C200649086000E000BF00BF4846B5
:1054C000BDE8F08710080020E0280100B4070020A4
:1054D000040800200808002070B50446FCF786F890
:1054E00000F00F00451C012C07D105EB450164229B
:1054F000514388B209F0D2FE0AE0022C04D105EB38
:10550000450009F0CBFE03E005EB450004F030F95F
:1055100070BD00008046C146002400250321002004
:10552000FFF752FD012232213348FBF7FDF83349E2
:105530000860FEF789FF5EE0C4F58052304801192B
:105540000023484603F022FF0646002E4CDD0221D0
:105550000120FEF71FFF29480068FEF7D7FC0CB1B9
:10556000012C04D13019012801DD25480588B5F545
:10557000805F34DC07F04AF83444AC422CDB204F27
:1055800000210846FFF720FD00BFB87800F03F007B
:10559000022802D1D7F80CA001E04FF0000AA9B20E
:1055A0003846FFF793FD01215046FFF70DFD641BC0
:1055B0002F44012C01DD3D8800E002E00DB1A54241
:1055C000E3DD00BF02210020FFF7FEFC24B12246EC
:1055D00039460B48FAF744FE07F010F80BE00024B8
:1055E00007F022F8814606E02EB9002407F01CF8E7
:1055F0008146FEF729FF9FE7658E000850080020CE
:105600001D41002010B510210148FEF74DFF10BDCF
:1056100028FD00082DE9F04F89B083460D46164657
:10562000012008902C464FF000080020059081468C
:10563000029082460CB1102E03D2022009B0BDE8C0
:10564000F08F584605F05AFA07460FB90220F5E7E1
:10565000FAF79CFD079000204D4908600798FAF77B
:1056600099FD88E009F014FE00F5FA60019000BF92
:105670000021484801600198FAF7F0FF0028F7D0B0
:10568000E268E17833465846FEF7D2FB58B90AF192
:10569000010ABAF10A0F00DB6EE04FF49670049035
:1056A000A9F1010908E009F10109B9F10F0F00DDC5
:1056B00062E04FF6FF70049000203649086000BF9A
:1056C00006A90498FEF784FB06980A2806D1FBF782
:1056D000D3FD0390039804F04BF84CE04FF0000A20
:1056E000FAF754FD07902A48006808281ED10020C8
:1056F000274908600798FAF74DFDB8F1050F00DB60
:105700003AE0FBF7A9FD324629465846FEF7EAFC87
:1057100088BBE268E17833465846FEF789FB50BB08
:1057200008F101084FF4FA700490C9E718480068BE
:105730000C281DD100201649086017480068029007
:105740000020154908600798FAF724FD0020134946
:105750000860B8F1000F03DDE1680298814204D0CF
:105760000598411C05910A2805DB0020089003E0FC
:105770000798FAF70FFD75E700BFFAF707FD0790E6
:105780000020034908600798FAF704FD089855E7D8
:105790000408002024080020080800201008002029
:1057A00010B506F0A7FA1C23024A00210248FDF7B3
:1057B0000DFA10BD0C5D0020894D000810B545F2B2
:1057C0005550FBF723FD0420FBF714FD40F6FF7056
:1057D000FBF716FDFBF706FD00224FF44871094860
:1057E000FAF7A2FF0849086008460068002801DAB5
:1057F00000BFFEE704480068FEF7F0FEFBF7EAFC96
:1058000010BD000021FA0008540800200FB4054B19
:1058100010B503A9044A029800F018F810BC5DF80E
:1058200014FB0000957E0008040A002002E008C86E
:10583000121F08C1002AFAD170477047002001E00A
:1058400001C1121F002AFBD1704700002DE9FF4F54
:105850008DB005460F460026E9E1252879D10024C0
:105860006D1CF74AA246A14601212B78203B01FA84
:1058700003F0104202D004436D1CF6E728782A2872
:1058800010D06FF02F022878A0F13001092915D827
:105890000AEB8A0102EB410144F0020400EB010A29
:1058A0006D1CF0E757F804ABBAF1000F03DA44F4CB
:1058B0000054CAF1000A44F002046D1C28782E2816
:1058C00017D115F8010F44F004042A280ED06FF008
:1058D0002F022878A0F1300109290AD809EB8901A3
:1058E00002EB410100EB01096D1CF2E757F8049B44
:1058F0006D1C28786C280FD006DC4C2817D068283F
:105900000DD06A2814D104E0742810D07A280FD161
:105910000DE044F400140AE044F4801401E044F47F
:1059200040146978814202D16D1C04F580146D1C0D
:1059300095F800C0BCF16E0F2AD012DCBCF1630FE9
:105940003CD007DCBCF1000F76D0BCF1580F19D168
:10595000A7E018E0BCF1640F6FD0BCF1690F11D162
:105960006BE0BCF1730F32D006DCBCF16F0F71D06D
:10597000BCF1700F06D196E0BCF1750F6BD0BCF195
:10598000780F69D06046DDE90F129047761C4DE133
:10599000C4F30250022806D003280AD0042801CFFD
:1059A0000AD0066042E101CF4FEAE671C0E900612A
:1059B0003CE101CF068039E1067037E101CF8DF877
:1059C000000000208DF80100EB46012003E057F8AD
:1059D00004BB4FF0FF3061074FF0000102D40DE02F
:1059E00008F10101884649450FDA8045F8DB1BF8CC
:1059F00008100029F4D108E008F10101884681422D
:105A0000FADB1BF808100029F6D1DDE90F23AAEB19
:105A100008008146214600F03CF9304400EB0806BE
:105A200004E0DDE90F121BF8010B9047B8F1010803
:105A3000F7D221464846F4E0FDE00A21C4F30252C1
:105A40004FF0000B0891022A07D001CFC117032A9B
:105A500009D00AE030E022E023E0FF1D27F007072D
:105A6000F7E8020105E000B2C117042A01D140B2F3
:105A7000C117002906DA0023D0EB030063EB010114
:105A80002D2202E0220504D52B228DF824200122AC
:105A900003E0E20701D02022F7E790464EE00A211A
:105AA0000BE0102109E010214FF0000B44F004043A
:105AB0004FF00809089103E008214FF0000B08910E
:105AC000C4F30252022A04D001CF0021032A06D0D7
:105AD00007E0FF1D27F00707F7E8020105E080B2A5
